:100000000C944B000C941D140C94A3140C947300CA
:100010000C94D5160C9473000C9473000C9473001C
:100020000C9473000C9473000C9473000C942915B9
:100030000C9473000C9473000C9473000C94730074
:100040000C9473000C9473000C9473000C94730064
:100050000C9473008F143C145114661451148F14B3
:100060007B143C143C147B148F14511466145114EB
:100070003C148F141515C214D714EC14D71415158D
:100080000115C214C21401151515D714EC14D71498
:10009000C21415154E1611241FBECFE5D8E0DEBFE1
:1000A000CDBF12E0A0E6B0E0E2E3FCE302C00590C1
:1000B0000D92A631B107D9F726E0A6E1B2E001C062
:1000C0001D92AB3FB207E1F710E0CBE4D0E004C0F3
:1000D0002197FE010E94D01BCA34D107C9F70E94A4
:1000E000CA0D0C94171E0C940000DC01FB01129643
:1000F0008C911297808313968C9113978183149619
:100100008C911497828315968C91159783831696FC
:100110008C911697848317968C91179785831896E0
:100120008C911897868319968C91878388E090E04C
:100130000895FC01DB014C9150E060E070E04283E7
:1001400053836483758311968C911197582B428346
:1001500053836483758312968C911297682B428324
:1001600053836483758313968C911397782B428302
:1001700053836483758314964C91149750E060E028
:1001800070E0468357836087718715968C91159729
:10019000582B468357836087718716968C911697E4
:1001A000682B468357836087718717968C91782BCD
:1001B000468357836087718788E090E0089586E6DC
:1001C00090E0089584E790E008954F925F926F92D7
:1001D0007F928F929F92AF92BF92CF92DF92EF92D7
:1001E000FF920F931F93CF93DF93EB01288130E0B1
:1001F000DC0113963C932E9312974981342B13966E
:100200003C932E931297FB01329620E030E0C12CF4
:10021000D12C76010EC046015701B6E08B0E911C21
:10022000A11CB11CE7E08E169104A104B104B8F43E
:1002300026C0419150E0022E02C0440F551F0A947F
:10024000E2F7052E000C660B770BC42AD52AE62AA6
:10025000F72A285F3F4F2032310559F7DCCFFE01E6
:10026000359626E030E0418141932F5F3F4FA90151
:1002700060E070E0481559056A057B05A0F386012A
:10028000FE01EC0DFD1D15829E012B5F3F4FDC0131
:1002900015963C932E931497D6011696FE01EA0FFD
:1002A000FB1F20E030E040E050E0BA01C190D12CCB
:1002B000022E02C0CC0CDD1C0A94E2F70D2C000CBF
:1002C000EE08FF084C295D296E297F29285F3F4FE2
:1002D0002032310559F714964D010B2E000CAA0857
:1002E000BB08840E951EA61EB71E6D01E12CF12CD5
:1002F000C814D904EA04FB04A8F4F8013996EC0FF9
:10030000FD1F21E030E07901EC1AFD0A21812193E3
:1003100087010E0F1F1F20E030E0081519052A0580
:100320003B05A0F34A0F5B1FBE01640F751F9B01C5
:1003300021503109F90110821197AC0FBD1FFC014A
:10034000B783A683FB0160E070E0C12CD12C76015D
:10035000019110E0062E02C0000F111F0A94E2F76F
:10036000012E000C220B330BC02AD12AE22AF32AD9
:10037000685F7F4F6032710559F7BA016C5F7F4F3C
:100380002B01072E000C660877084C0C5D1C6E1CB8
:100390007F1C8B0120E030E004151505260537058C
:1003A00090F44D5F5F4FFE01E40FF51F9B0141810B
:1003B00041932F5F3F4F4901A12CB12C8414950428
:1003C000A604B704A0F3C60ED71EFE01EC0DFD1D5A
:1003D000DF0111971C9261507109C60FD71FDC0114
:1003E0001996DC93CE9318972181428150E060E00A
:1003F00070E0BA0155274427522B2081422B2381DC
:10040000722BFC014287538764877587C601049667
:10041000DF91CF911F910F91FF90EF90DF90CF90E0
:10042000BF90AF909F908F907F906F905F904F9014
:10043000089585E990E008958EEA90E008958F92FE
:100440009F92AF92BF92CF92DF92EF92FF92CF93A3
:10045000DF93DC01EB01FB01819112968C931297E3
:1004600020E030E0C12CD12C76010EC046015701AE
:1004700085E0880E911CA11CB11C86E088169104B1
:10048000A104B104B8F426C0419150E0022E02C08C
:10049000440F551F0A94E2F7052E000C660B770BEC
:1004A000C42AD52AE62AF72A285F3F4F2032310591
:1004B00059F7DCCFFE01349625E030E0818181934D
:1004C0002F5F3F4FA90160E070E0481559056A05AC
:1004D0007B05A0F3FE01EC0DFD1D148224961496FD
:1004E000DC93CE931397C6010596DF91CF91FF90D1
:1004F000EF90DF90CF90BF90AF909F908F90089536
:100500008FEC90E0089582EE90E008958AEF91E0FC
:10051000089583E091E00895DC01FB0112963C917F
:10052000129713962C91139714969C9114971596E5
:100530008C91308321839283838384E090E00895BB
:10054000FB012181428150E060E070E0BA01552753
:100550004427522B2081422B2381722BFC014283A2
:1005600053836483758384E090E0089584E291E08E
:10057000089583E391E00895FC0182818093E4066D
:100580000895FB012181428150E060E070E0BA01F2
:1005900055274427522B2081422B2381722BDC01CB
:1005A00018964D935D936D937C931B971C96ED91DC
:1005B000FC911D97069609950895FC0186859785FF
:1005C000089584E291E0089583E391E008958F57C0
:1005D0009B4FFC01808108958F929F92AF92BF92B2
:1005E000CF92DF92EF92FF920F931F93CF93DF93FF
:1005F0007C018B01DC0112968C911297FB018083A8
:1006000013968C91139781831496ED91FC91159715
:10061000EF0109900020E9F72197CE1BDF0BCE01F7
:10062000A0E0B0E0FB01C2839383A483B583D7012C
:1006300014966D917C911597AE01C80106960E94A3
:10064000B61C2696F701A681B781FD010190002016
:10065000E9F731976F01CA1ADB0AC601A0E0B0E0E2
:10066000F801EC0FFD1F20E030E0AC01BD01022ECF
:1006700004C076956795579547950A94D2F74193AC
:10068000285F3F4F2032310581F72496D701169617
:100690006D917C911797A601C8018C0F9D1F0E9438
:1006A000B61CCC0DDD1DD7011896ED91FC91199764
:1006B000DF010D900020E9F711976D01CE1ADF0AD6
:1006C0004601A12CB12CF801EC0FFD1F80E090E059
:1006D000B501A401082E04C07695679557954795F6
:1006E0000A94D2F7419308968032910589F72496AF
:1006F000F70160857185A601C8018C0F9D1F0E94BE
:10070000B61CC6018C0F9D1FD7011A965C911A97D3
:100710001B964C911B971C963C911C971D962C91F7
:10072000F801E80FF91F5083418332832383049635
:10073000DF91CF911F910F91FF90EF90DF90CF90BD
:10074000BF90AF909F908F900895CF92DF92EF92DD
:10075000FF92CF93DF93DC01CB0112962C9112977D
:10076000FB01219313962D913C911497E901099077
:100770000020E9F72197C21BD30B6E01E12CF12C6D
:1007800020E030E0B701A601022E04C076956795FF
:10079000579547950A94D2F74193285F3F4F2032EF
:1007A000310581F713966D917C911497AE010596F2
:1007B0000E94B61CCE010596DF91CF91FF90EF907D
:1007C000DF90CF9008954F925F926F927F92AF9299
:1007D000BF92CF92DF92EF92FF920F931F93CF932E
:1007E000DF93DC0112962C911297FB012083139664
:1007F0002C911397218314962C911497228315968C
:100800002C911597238312960D911D912D913C915A
:100810001597012B022B032B71F1DB0100E010E097
:100820009801C4E0D0E0FC0142855385FA01EC0F49
:10083000FD1F3497E080F180528143811496EC9241
:1008400014971596FC92159716965C931697179623
:100850004C93179724960F5F1F4F2F4F3F4F1496BF
:10086000FC01C280D380E480F5800C151D052E05A7
:100870003F05C8F202C0C4E0D0E0DB01AC0FBD1FF1
:10088000FC0124852C93258511962C9311972685A0
:1008900012962C931297278513962C9313972496D0
:1008A0000485158526853785012B022B032B69F1DD
:1008B00040E050E000E010E09801FC01E488F58899
:1008C000F701E40FF51FD080E180F280E3811496F8
:1008D000DC9214971596EC9215971696FC92169743
:1008E0001796EC93179724960F5F1F4F2F4F3F4F8C
:1008F0004C5F5F4F1496FC01C484D584E684F78472
:100900000C151D052E053F05C0F2FB01EC0FFD1F68
:10091000DC0156962C915697208357962C91579729
:10092000218358962C915897228359962C91599748
:100930002383249656960D911D912D913C915997A4
:10094000012B022B032B09F455C05B018C01C12C38
:10095000D12C412C512C3201D8015C96ED91FC91A7
:100960005D97EC0DFD1DA081B181FD01019000207E
:10097000E9F731977F01EA1AFB0AA70160E070E00E
:10098000F501EC0FFD1F20E030E0DB01CA01022E73
:1009900004C0B695A795979587950A94D2F7819349
:1009A000285F3F4F2032310581F72496D8015C96AD
:1009B000ED91FC915D97EC0DFD1D60817181A701AA
:1009C000C5018C0F9D1F0E94B61CCE0DDF1DBFEF11
:1009D0004B1A5B0A6B0A7B0AE2E0CE0ED11CF801CF
:1009E00086899789A08DB18D481659066A067B06BF
:1009F00008F4B2CFCE01DF91CF911F910F91FF90FC
:100A0000EF90DF90CF90BF90AF907F906F905F900E
:100A10004F9008952F923F924F925F926F927F92E4
:100A20008F929F92AF92BF92CF92DF92EF92FF92FE
:100A30000F931F93CF93DF9300D000D000D0CDB79A
:100A4000DEB79E838D838B01DB018C9111969C9187
:100A500011971296CC901297D12CE12CF12C7601A3
:100A6000DD24CC24D92AC82A13968C91F82AED814A
:100A7000FE8182819381A481B5818C159D05AE058F
:100A8000BF0578F4B601660F771F660F771F828562
:100A900093850E94F01BAD81BE811B969C938E9323
:100AA0001A97ED81FE81C282D382E482F582CD283D
:100AB000CE28CF2809F456C0F80140E050E0BA0132
:100AC0006894EE24E2F8F12C2D813E812A5F3F4F9D
:100AD000D580868190E0A0E0B0E0DC0199278827EE
:100AE0009D29D4808D29D7804C015D01BD28AD8121
:100AF000BE8116968D929D92AD92BC921997670118
:100B000084E0C81AD10894E0E90EF11CAD81BE81E1
:100B10001A968D919C911B97C80ED91ED9018D9163
:100B20009C91D6018D939C93D90112968D919C91A5
:100B30001397D60113969C938E9312974F5F5F4F36
:100B40006F4F7F4F3496AD81BE8112968D909D90F0
:100B5000AD90BC901597481559056A057B0508F4BA
:100B6000B7CF04C06894EE24E2F8F12C6801CE0CF3
:100B7000DF1CF601808191818280912CA12CB12C07
:100B8000540199248824992A882A8381B82AF4E078
:100B9000EF0EF11CED81FE8184859585A685B785D4
:100BA00088159905AA05BB0578F4B401660F771F6F
:100BB000660F771F848995890E94F01BAD81BE81E5
:100BC00055969C938E935497ED81FE8184869586ED
:100BD000A686B78689288A288B2809F452C0F60190
:100BE00020E030E0812C912C54014D815E81405FEA
:100BF0005F4F6581868190E0A0E0B0E0DC0199273D
:100C00008827962B6481862B67812C013D01762AEB
:100C1000AD81BE8150964D925D926D927C925397BC
:100C2000B4E0EB0EF11CAD81BE8154966D917C91C8
:100C30005597620F731FDA018D919C91DB018D93A3
:100C40009C93DA0112968D919C911397DB01139678
:100C50009C938E931297BFEF8B1A9B0AAB0ABB0A29
:100C60002C5F3F4F3496AD81BE811C964D905D90B8
:100C70006D907C901F9784149504A604B70408F423
:100C8000B8CFF801EE0DFF1D808191818280912CFB
:100C9000A12CB12C540199248824992A882A838173
:100CA000B82AB4E0EB0EF11CED81FE8186899789AC
:100CB000A08DB18D88159905AA05BB0568F4B4010E
:100CC000660F771F848D958D0E94F01BAD81BE81CC
:100CD0005D969C938E935C97ED81FE81868A978AC0
:100CE000A08EB18E89288A288B2809F477C0A0E0CD
:100CF000B0E0812C912C54017A96FC83EB83FA822C
:100D0000E982F801EE0DFF1D80E090E040E050E048
:100D1000BA01219130E0082E02C0220F331F0A943D
:100D2000E2F72901330F6608770844295529662917
:100D3000772908968032910561F7C70104966C0106
:100D4000092E000CEE08FF08C40ED51EE61EF71E85
:100D50001C01412C512C2C143D044E045F0490F4D2
:100D6000E981FA813396E00FF11F9C017180719245
:100D70002F5F3F4F2901612C712C4C145D046E04D0
:100D80007F04A0F3480F591FF801E40FF51F3197B6
:100D900010820197800F911FED81FE81938F828FCA
:100DA0007A01248D358D2A0F3B1FEB81FC818081D8
:100DB0009181F90191838083FFEF8F1A9F0AAF0A17
:100DC000BF0A1296ED81FE8146895789608D718D2B
:100DD00084169506A606B70608F491CFC701269695
:100DE0000FB6F894DEBF0FBECDBFDF91CF911F913C
:100DF0000F91FF90EF90DF90CF90BF90AF909F90BA
:100E00008F907F906F905F904F903F902F900895BC
:100E1000CF92DF92EF92FF920F931F93CF93DF93C6
:100E200000D000D01F92CDB7DEB7643671053CF01C
:100E3000FC01EF57FB4F2081222309F47EC0DA0129
:100E40007B018C01BC01665E7D4FED91FC910190B0
:100E5000F081E02DCA010995DC01F801ED5EFD4F3E
:100E60008FEF808331968EEF80833196A083319609
:100E7000B08331968B2F8A0F809580833196E082E4
:100E80003196F082BD01695F7F4F663071057CF05D
:100E90003197AD01465E5D4F400F511F20E030E0BD
:100EA0009191290F311DE417F507D1F702C020E019
:100EB00030E07D0188E0E80EF11C600F711FFB013E
:100EC000ED5EFD4F307833232CF4215031093F6F14
:100ED0002F5F3F4F20952083E1E0EE16E2E0FE0613
:100EE00094F40D5E1D4F1E141F0454F568011896EE
:100EF0000A0F1B1FD6018D916D010E943917C01674
:100F0000D106C1F720C084EC91E09A83898383E005
:100F10008B8384E591E09D838C83D801ED91FC91D6
:100F20000190F081E02DAE014F5F5F4F67E070E010
:100F3000C80109958FEF9FEF08C080E090E005C0E1
:100F40008E2D9F2D02C08E2D9F2D0F900F900F90F4
:100F50000F900F90DF91CF911F910F91FF90EF9025
:100F6000DF90CF9008952F923F924F925F926F92B1
:100F70007F928F929F92AF92BF92CF92DF92EF9229
:100F8000FF920F931F93CF93DF93CDB7DEB7E29716
:100F90000FB6F894DEBF0FBECDBF1C010E9415171F
:100FA0002B013C01F101EA57FB4F80819181A28125
:100FB000B38153014201881A990AAA0ABB0A09EFB0
:100FC00080160AE29006A104B10410F03597108251
:100FD000F101E958FB4F80819181892B69F073966B
:100FE00080819181A281B38184159505A605B705FD
:100FF00018F4739711821082610111E8C11A1BEF76
:10100000D10A710129E8E21A2BEFF20A8101055891
:101010001B4F1C8B0B8B0A5F1F4F1A8B098B025FB8
:101020001F4F188B0F870150110918A30F8F0F85C1
:101030001889065E1F4F1E8F0D8F0F851889005F60
:101040001F4F1A8F098F0F8518890A5F1F4F1C8F3A
:101050000B8F5301420114E1810E911CA11CB11CA4
:10106000F10187859089A189B289892B8A2B8B2BE5
:1010700099F00E941517DC01CB0184199509A60986
:10108000B709F101078510892189328908171907E5
:101090002A073B0708F45DC50E943D1799230CF40D
:1010A00017C5D6012D913C911197280F391F2D930B
:1010B0003C93F7014081518147305105F9F4F1012A
:1010C000E358FB4F20813181A9014F5F5F4F51836E
:1010D0004083F101E20FF31F838BF101E758FB4FCF
:1010E00080819181019791838083892B09F0B8CF0A
:1010F00088E090E0D7018D939C93B2CF41155105C4
:1011000029F58F3F910569F481E090E0F701918323
:101110008083F101E657FB4F80829182A282B382E5
:101120009FCF0E941517DC01CB0184199509A609F0
:10113000B70989389341A105B10508F491CFF101B0
:10114000EF57FB4F10828EEF9FEF0BC541305105DB
:1011500089F58E3F910529F482E090E091838083A8
:101160007FCFF70111821082A989BA898C918111F0
:1011700077CF8CEA91E09A8389831B821C821D823F
:101180001E821F82188619861A86D101ED91FC9164
:101190000190F081E02DAE014F5F5F4F6AE070E09B
:1011A000C10109950E941517F1016383748385833A
:1011B000968356CF4230510589F4F101E758FB4F31
:1011C0009183808334961182108223E030E0D7012E
:1011D0002D933C93F6019183808342CF4330510598
:1011E00089F4F101E758FB4F982F8827208131813E
:1011F000820F931F9183808384E090E0D7018D93C9
:101200009C932ECF44305105A9F4307833232CF42D
:10121000215031093F6F2F5F3F4F2F3F310531F490
:1012200085E090E0F701918380831ACFD7011D926A
:101230001C9216CF4530510569F4EB89FC899183E6
:10124000808326E030E0D7012D933C93F601918313
:10125000808306CF46305105F1F4982F8827AB895B
:10126000BC892D913C911197820F931F8D939C9374
:1012700087E090E0F70191838083F101E758FB4F0D
:1012800080819181892B09F0EBCE88E090E0D70135
:101290008D939C93E5CE4830510509F0E1CEF701DE
:1012A00011821082307833232CF4215031093F6FA2
:1012B0002F5F3F4F2F3F310509F0D2CEAB89BC895C
:1012C0008D919C91009709F0E3C08CEA91E09A839C
:1012D00089831B821C821D821E821F8218861986AA
:1012E0001A86D101ED91FC910190F081E02DAE01C3
:1012F0004F5F5F4F6AE070E0C10109950E941517CA
:10130000F101638374838583968388EB91E09A83EC
:1013100089831C821B828CE891E09E838D83988751
:101320008F839A8789871B861C861D861E8671017E
:10133000FDEEEF1AFBEFFF0A81010B5B1B4F812CC7
:10134000912C5401689491F8D701ED91FC9130975C
:10135000A9F1848195819C838B83808191819E8377
:101360008D8382819381DC01ED91FC910480F58174
:10137000E02D099598878F83D701ED91FC918281AB
:101380009381DC01ED91FC910680F781E02D0995B8
:101390009A8789878B869C86AD86BE86D701ED911C
:1013A000FC9160857185D101ED91FC910190F081F6
:1013B000E02DAE014F5F5F4FC1010995B2E0EB0E2A
:1013C000F11CE016F10609F0BFCF7101E9E8EE1A51
:1013D000EBEFFE0A812C912C5401689491F8F801EE
:1013E000A081B1811097E1F112968D919C91139794
:1013F0009C838B8314968D919C9115979E838D83EE
:10140000ED91FC9111970480F581E02DCD010995B6
:1014100098878F83D8018D919C91DC01ED91FC918F
:101420000680F781E02D09959A8789878B869C86AF
:10143000AD86BE86D101ED91FC91C080D180F801CE
:1014400080819181DC01ED91FC910280F381E02D9E
:101450000995AE014F5F5F4FBC01C101F6010995CF
:101460000E5F1F4FE016F10609F0B9CFF101EF57FB
:10147000FB4F81E080833196408251826282738289
:10148000349640825182628273828FEF9FEF69C3EC
:101490008A30910509F0C5C00E941517D101139635
:1014A0000D911D912D913C911697601B710B820B34
:1014B000930B69A77AA78BA79CA754968C915497F6
:1014C00055962C915597422F50E060E070E0BA019C
:1014D00055274427582B53968C915397482B569653
:1014E0008C918A019B01382BA90198012150310967
:1014F0004109510929A33AA34BA35CA3D1015896F2
:101500002C91589759968C9190E0A0E0B0E0DC01C6
:1015100099278827922BF1012789822B228DB22BC4
:101520008C019D0116532546344C0D8B1E8B2F8B41
:10153000388F0E9415176DA37EA38FA398A769A566
:101540007AA58BA59CA528EE33E040E050E00E94F0
:101550008F1B69A77AA78BA79CA769A17AA18BA1EA
:101560009CA1620F731F841F951F69A37AA38BA38D
:101570009CA36DA17EA18FA198A528EE33E040E049
:1015800050E00E948F1B6DA37EA38FA398A789A113
:101590009AA1ABA1BCA1821B930BA40BB50BF101CB
:1015A00087839087A187B28729A53AA54BA55CA51B
:1015B00060E472E48FE090E00E947F1B0D891E8939
:1015C0002F89388D060F171F281F391F0D8B1E8B73
:1015D0002F8B388F2DA13EA14FA158A560E472E456
:1015E0008FE090E00E947F1B0D891E892F89388D26
:1015F000061B170B280B390B0387148725873687A3
:10160000B101655F7F4FC10107960E94F7180E94E4
:101610001517F101EA57FB4F60837183828393832F
:101620001FCD8630910509F033C281010D5E1F4F39
:101630001AA309A3D10153962C91539754963C9128
:10164000549755968C9190E0A0E0B0E0DC0199278A
:101650008827932B822BF1012689AC01BD01722BC7
:101660004D8B5E8B6F8B788FEF85F88982819381AC
:10167000A481B58184179507A607B70778F4BA0146
:10168000660F771F660F771F828593850E94F01B78
:10169000AF85B8891B969C938E931A970D891E89E6
:1016A0002F89388DAF85B88912960D931D932D9390
:1016B0003C931597012B022B032B09F454C0A9A1CD
:1016C000BAA1E4E0F0E0FE8BED8B40E050E0BA011F
:1016D00015968C91159716969C911697092F10E0E8
:1016E00020E030E0980111270027182B14968C91E8
:1016F0001497082B17968C911797382BEF85F8893C
:101700000683178320873187ED89FE89CF010497EF
:101710008F010C5F1F4F1E8B0D8BEF85F889228583
:101720003385280F391FEB8DFC8D80819181F90164
:1017300091838083EB8DFC8D82819381F90193836A
:1017400082834F5F5F4F6F4F7F4F1496EF85F8890D
:101750000281138124813581401751076207730785
:1017600008F4B6CF04C004E010E01E8B0D8B09A175
:101770001AA12D893E89020F131F1EA30DA3D801A4
:101780004C9111965C91119712968C9190E0A0E08B
:10179000B0E0DC0199278827952B842BF801438141
:1017A0008C019D01342B09A71AA72BA73CA70D89F3
:1017B0001E890C5F1F4FEF85F88984859585A68566
:1017C000B78529A53AA54BA55CA582179307A40761
:1017D000B50778F4B901660F771F660F771F848904
:1017E00095890E94F01BAF85B88955969C938E937E
:1017F000549729A53AA54BA55CA5AF85B8891C9639
:101800002D933D934D935C931F97232B242B252BD6
:1018100009F461C0EDA1FEA120E030E040E050E01D
:10182000BA01FAA7E9A7FE8AED8A8FA698AAA9AA03
:10183000BAAAE9A5FAA5F580868190E0A0E0B0E01B
:10184000DC01992788279F29F4808F29F7804C0194
:101850005D01BF288DA29EA2AFA2B8A6AF85B889B0
:1018600050968D929D92AD92BC9253970C5F1F4FF4
:101870005496ED90FC905597E20EF31EE98DFA8D8B
:1018800080819181D70111969C938E93828193815F
:1018900013969C938E9312974F5F5F4F6F4F7F4FBE
:1018A0002C5F3F4FE9A5FAA53496FAA7E9A7AF85C3
:1018B000B8891C968D909D90AD90BC901F9748154F
:1018C00059056A057B0508F4B4CFED88FE888FA41E
:1018D00098A8A9A8BAA8E9A1FAA1E00FF11F208150
:1018E0003181828190E0A0E0B0E0DC019927882777
:1018F000932B822B2381AC01BD01722B4D8B5E8B10
:101900006F8B788F0C5F1F4FEF85F88986899789D9
:10191000A08DB18D84179507A607B70768F4BA01A3
:10192000660F771F848D958D0E94F01BAF85B88957
:101930005D969C938E935C972D893E894F89588D37
:10194000AF85B88956962D933D934D935C935997E7
:10195000232B242B252B09F496C01AA619A61DA209
:101960001EA21FA218A61EA70DA7E9A1FAA1E00FAB
:10197000F11F20E030E01D8A1E8A1F8A188E40E089
:1019800050E0BA01819190E0022E02C0880F991FA9
:101990000A94E2F7092E000CAA0BBB0B482B592B1B
:1019A0006A2B7B2B285F3F4F2032310559F74D8B37
:1019B0005E8B6F8B788FD80114968D010B2E000CE7
:1019C000220B330B040F151F261F371FAD0160E0DC
:1019D00070E0401751076207730798F4EDA5FEA564
:1019E000339649A15AA1E40FF51FCD0141814193DE
:1019F0000196AC0160E070E0401751076207730781
:101A0000A8F30D891E890A0F1B1FE9A1FAA1E00F97
:101A1000F11F31971082119769A17AA1A60FB71F04
:101A2000EF85F889B38FA28F048CF58DE02D29A561
:101A30003AA5E20FF31FAD8DBE8D8D919C919183E0
:101A400080832DA13EA14FA158A52F5F3F4F4F4F3F
:101A50005F4F2DA33EA34FA358A749A55AA54E5F9C
:101A60005F4F5AA749A7EF85F88986899789A08D86
:101A7000B18D2DA13EA14FA158A5281739074A07BE
:101A80005B0708F470CF81E0AF8DB8A18C93E8CAF2
:101A90008B30910521F4E989FA891082E1CAFC01B1
:101AA000E456F109EE0FFF1FE20DF31DEB5BFB4F58
:101AB00080819181009709F4D3CADC01ED91FC91FA
:101AC0000190F081E02DB1016D5E7F4F0995C8CA8C
:101AD000F101EF57FB4F80818823F1F1319680812E
:101AE0009181A281B38153014201881A990AAA0AFD
:101AF000BB0A05EC801609E09006A104B10478F158
:101B00008CEA91E09A8389831B821C821D821E824B
:101B10001F82188619861A86D101ED91FC910190D9
:101B2000F081E02DAE014F5F5F4F6AE070E0C101D0
:101B300009950E941517F101638374838583968349
:101B4000EE57FB4F408251826282738280E090E0C8
:101B500008C08EEF9FEF05C080E090E002C080E0FB
:101B600090E0E2960FB6F894DEBF0FBECDBFDF91D6
:101B7000CF911F910F91FF90EF90DF90CF90BF908A
:101B8000AF909F908F907F906F905F904F903F901D
:101B90002F900895CF93DF93CDB7DEB76E970FB632
:101BA000F894DEBF0FBECDBF4FEF64E083E00E942C
:101BB00045174FEF65E083E00E9445174FEF66E061
:101BC00083E00E9445176CE685E00E9425190E947B
:101BD000311881E00E94361881E00E945E1880E092
:101BE00090E00E942A18833338F080E090E00E9451
:101BF0002A188093EA0606C080E090E00E942A1826
:101C00008093EA060FB6F894A89581B5886181BDE6
:101C100011BC0FBE0E94FA160E94201778941092F1
:101C2000AE061092AD061092B0061092AF0610925A
:101C3000B4061092B3061092B2061092B1068091CB
:101C4000490690914A06892B49F0EBE4F6E081E0E1
:101C500090E021913191232BA9F402C080E090E023
:101C6000DC01AA0FBB1FA75BB94FE6E2F2E0ED93E0
:101C7000FC9383589F4F9583848386E392E09783F8
:101C8000868304C001968931910519F780917B06FE
:101C900090917C06892B49F0EDE7F6E081E090E039
:101CA00021913191232BB9F402C080E090E0FC0136
:101CB000EE0FFF1FE558F94FA6E1B2E0B183A08314
:101CC0008C599F4F13969C938E9312971F86188A58
:101CD000198A1A8A05C001968931910509F7F6CF4C
:101CE0000E941517DC01CB014F84588869887A88D7
:101CF00084199509A609B70985369105A105B1058D
:101D000020F18091EE06082E000C990BAA0BBB0B5C
:101D10008093320290933302A0933402B093350241
:101D2000E6E2F2E08681978164817581DC01ED91C4
:101D3000FC910190F081E02D40E352E009950E9472
:101D400015176F87788B898B9A8B8091EB068A3079
:101D500091F49091EE068091E906981731F0609128
:101D6000EE0680E090E00E9422188091EE068093BB
:101D7000E9061092EB060E9415176B017C01809119
:101D8000BC069091BD06A091BE06B091BF0626018B
:101D90003701481A590A6A0A7B0A29EF42162AE2D1
:101DA00052066104710410F01092B7068091AD06DE
:101DB0009091AE06892B89F08091C0069091C10662
:101DC000A091C206B091C3068C159D05AE05BF0556
:101DD00020F41092AE061092AD060F2EF1ED2F2ECC
:101DE000F6E03F2EF02D4601570134E1830E911CA1
:101DF000A11CB11C8091450290914602A09147021E
:101E0000B0914802892B8A2B8B2BB1F00E941517B9
:101E1000DC01CB018C199D09AE09BF090091450277
:101E20001091460220914702309148020817190785
:101E30002A073B0708F454CF0E943D1799230CF45E
:101E4000B6C4E5EBF6E020813181280F391F3183DC
:101E500020834091AD065091AE0647305105F1F414
:101E6000E3EBF6E020813181A9014F5F5F4F5183A1
:101E70004083F901EA5CFD4F838BEFEAF6E0808155
:101E80009181019791838083892B09F0B3CF88E0FA
:101E900090E09093AE068093AD06ACCF411551050E
:101EA00019F58F3F910579F481E090E09093AE06AB
:101EB0008093AD068092C0069092C106A092C206A1
:101EC000B092C30697CF0E941517DC01CB018C1985
:101ED0009D09AE09BF0989389341A105B10508F4F0
:101EE00089CF1092B706FCCE41305105A9F58E3F3F
:101EF000910539F482E090E09093AE068093AD06B0
:101F000079CF1092AE061092AD068091B70681117E
:101F100071CF8CEA91E09A8389831B821C821D8297
:101F20001E821F82188619861A8606E312E0D801DF
:101F3000ED91FC910190F081E02DAE014F5F5F4F7C
:101F40006AE070E0C80109950E941517F8016383E3
:101F50007483858396834ECF4230510599F49093D4
:101F6000B0068093AF061092B4061092B30623E039
:101F700030E03093AE062093AD069093B606809382
:101F8000B50638CF4330510589F4EFEAF6E0982FD3
:101F9000882720813181820F931F9183808384E081
:101FA00090E09093AE068093AD0624CF4430510567
:101FB000B9F4307833232CF4215031093F6F2F5F6F
:101FC0003F4F2F3F310539F485E090E09093AE0606
:101FD0008093AD060FCF1092AE061092AD060ACFD9
:101FE0004530510579F49093B2068093B10626E00E
:101FF00030E03093AE062093AD069093B606809302
:10200000B506F8CE46305105F1F4E1EBF6E0982F35
:10201000882720813181820F931F9183808387E0FD
:1020200090E09093AE068093AD068091AF069091BC
:10203000B006892B09F0DECE88E090E09093AE06E2
:102040008093AD06D7CE4830510509F0D3CE10921B
:10205000AE061092AD06307833232CF421503109AE
:102060003F6F2F5F3F4F2F3F310509F0C3CE809167
:10207000B1069091B206009709F0EEC08CEA91E0AB
:102080009A8389831B821C821D821E821F8218866E
:1020900019861A8606E312E0D801ED91FC910190B1
:1020A000F081E02DAE014F5F5F4F6AE070E0C80144
:1020B00009950E941517F8016383748385839683BD
:1020C00088EB91E09A8389831C821B828CE891E0E3
:1020D0009E838D8398878F839A8789871B861C862A
:1020E0001D861E8609E416E00F2EFBE76F2EF6E034
:1020F0007F2EF02D5F01D801ED91FC913097C9F151
:10210000848195819C838B83808191819E838D8343
:1021100082819381DC01ED91FC910480F581E02DB9
:10212000099598878F83D801ED91FC9182819381E5
:10213000DC01ED91FC910680F781E02D09959A87ED
:10214000898720E032E040E050E02B873C874D87D4
:102150005E87D801ED91FC9160857185D501ED9187
:10216000FC910190F081E02DAE014F5F5F4FC50102
:1021700009950E5F1F4F6016710609F0BCCF0F2E38
:10218000FDEA8F2EF6E09F2EF02D0F2EF6E3AF2EF8
:10219000F2E0BF2EF02DF301A081B181109709F478
:1021A00040C012968D919C9113979C838B831496BB
:1021B0008D919C9115979E838D83ED91FC91119744
:1021C0000480F581E02DCD01099598878F83D30197
:1021D0008D919C91DC01ED91FC910680F781E02DC1
:1021E00009959A87898720E032E040E050E02B870C
:1021F0003C874D875E87D501ED91FC91008111816F
:10220000F30180819181DC01ED91FC910280F381E9
:10221000E02D0995AE014F5F5F4FBC01C501F8018C
:102220000995F2E06F0E711C6814790409F0B3CFC0
:1022300081E08093B706C092B806D092B906E092CA
:10224000BA06F092BB06C092BC06D092BD06E092E0
:10225000BE06F092BF0644CD8A30910509F0BEC09B
:102260000E94151706E312E0D80113964D905D9079
:102270006D907C9016979B01AC0124193509460995
:1022800057092F8B388F498F5A8F54968C915497BA
:1022900055962C915597422F50E060E070E0BA01BE
:1022A00055274427582B53968C915397482B569675
:1022B0008C912A013B01782AA30192012150310916
:1022C000410951092B8B3C8B4D8B5E8BD801589665
:1022D0002C91589759968C9190E0A0E0B0E0DC01E9
:1022E00099278827922BF8012789822B228DB22BE0
:1022F0002C013D01F6E35F1AF5E66F0AF4EC7F0A64
:102300000E9415176B8F7C8F8D8F9E8F6F89788DB4
:10231000898D9A8D28EE33E040E050E00E948F1BBB
:102320006F8B788F898F9A8F8B899C89AD89BE89B5
:10233000820F931FA41FB51F8B8B9C8BAD8BBE8B05
:102340006B8D7C8D8D8D9E8D28EE33E040E050E0CE
:102350000E948F1B6B8F7C8F8D8F9E8F8B899C89AA
:10236000AD89BE89821B930BA40BB50BF801878343
:102370009087A187B2872F89388D498D5A8D60E467
:1023800072E48FE090E00E947F1B460E571E681E8D
:10239000791E2B8D3C8D4D8D5E8D60E472E48FE057
:1023A00090E00E947F1BA3019201261B370B480B74
:1023B000590B238734874587568761E472E08DE3A4
:1023C00092E00E94F7180E9415176093BC06709364
:1023D000BD068093BE069093BF060CCD8630910556
:1023E00009F0CBC1E6E3F2E0838994894588512C5A
:1023F000612C712C320155244424592A482A86899B
:10240000782A8091C7069091C806A091C906B0911C
:10241000CA0684159505A605B70578F40FEC16E0F5
:10242000B201660F771F660F771FD8018D919C91BF
:102430000E94F01BF801918380834092C70650925E
:10244000C8066092C9067092CA06452846284728E1
:1024500009F447C0E6E3F2E064E070E0412C512C5F
:1024600032010BEC16E0808D218D30E040E050E031
:10247000A90133272227382B8789282B828D582BB7
:10248000C901D8012D933D934D935C9313979B0104
:10249000245031096C5F7F4FAFECB6E04D915C91F9
:1024A000240F351FD9018D939C93D80112968D91DD
:1024B0009C911397D90113969C938E931297BFEF1B
:1024C0004B1A5B0A6B0A7B0A3496A7ECB6E02D9197
:1024D0003D914D915C91421653066406750618F2C3
:1024E00002C064E070E07C8B6B8BFB01E75BFD4F0F
:1024F0008081FB01E65BFD4F9081FB01E55BFD4FB9
:102500004080512C612C712C320155244424592ACD
:10251000482AFB01E45BFD4F8081782A8B010C5F28
:102520001F4FF10180819181A281B38184159505AE
:10253000A605B70578F4B201660F771F660F771FFF
:10254000A9EDB6E08D919C910E94F01BE9EDF6E0BB
:1025500091838083D1014D925D926D927C9213970D
:1025600045284628472809F443C0EB89FC89EA5CE2
:10257000FD4F20E030E040E050E0BA01808D418C1A
:10258000512C612C712C320155244424582A8789FE
:10259000482A828D782AC201A5EDB6E04D925D925F
:1025A0006D927C9213970C5F1F4FA9EDB6E06D9072
:1025B0007C90D301A20FB31F11969C938E938091B0
:1025C000D7069091D80613969C938E9312974F5FDF
:1025D0005F4F6F4F7F4F2C5F3F4F3496D1014D902F
:1025E0005D906D907C90441555056605770530F239
:1025F000F801E75BFD4F8081F801E65BFD4F9081BC
:10260000F801E55BFD4F4080512C612C712C3201AB
:1026100055244424592A482AF801E45BFD4F80815F
:10262000782A0C5F1F4FEBEDF6E080819181A2814B
:10263000B38184159505A605B70568F4B201660F48
:10264000771FA1EEB6E08D919C910E94F01BE1EE08
:10265000F6E091838083ABEDB6E04D925D926D9292
:102660007C92139745284628472809F482C0188E83
:102670001F8A1B8A1C8A1D8A1E8A1C8F0B8FF801D9
:10268000E75BFD4F20E030E0412C512C320181917D
:1026900090E0022E02C0880F991F0A94E2F7092EDB
:1026A000000CAA0BBB0B482A592A6A2A7B2A285FEE
:1026B0003F4F2032310559F7D80114968D010B2E6A
:1026C000000C220B330B040D151D261D371DAD010B
:1026D00060E070E0401751076207730780F4EB8DEC
:1026E000FC8DE45BFD4FCD01418141930196AC012E
:1026F00060E070E04017510762077307A8F3CD014F
:10270000840D951DFC01E85BFD4F1082A85BBD4F59
:10271000EFEDF6E0B183A0838C01E1EEF6E02081DD
:102720003181EF89F88DE20FF31FB183A0832B89EC
:102730003C894D895E892F5F3F4F4F4F5F4F2B8BF9
:102740003C8B4D8B5E8B4F89588D4E5F5F4F588F02
:102750004F8BEBEDF6E080819181A281B3814B88B4
:102760005C886D887E88481659066A067B0608F4E0
:1027700084CF81E08093C4063DCB8B30910519F462
:102780001092B70637CB880F991FFC01ED54FA4F12
:1027900080819181009709F42DCBDC01ED91FC91B2
:1027A0000190F081E02D69E472E0099523CB8091DE
:1027B000B706882309F494CA8091B8069091B906A7
:1027C000A091BA06B091BB0626013701481A590AF2
:1027D0006A0A7B0A25EC421629E05206610471045C
:1027E00008F47ECA8CEA91E09A8389831B821C825A
:1027F0001D821E821F82188619861A8606E312E041
:10280000D801ED91FC910190F081E02DAE014F5F78
:102810005F4F6AE070E0C80109950E941517F80142
:102820006383748385839683C092B806D092B90679
:10283000E092BA06F092BB0653CA1F920F920FB6EF
:102840000F9211244F935F936F937F938F939F9376
:10285000EF93FF938091E30683708299846083995C
:102860008860482F50E04031510508F044C0FA011B
:10287000E65DFF4F0C94D01B4091EF065091F0069F
:102880006091F1067091F2064F5F5F4F6F4F7F4F7F
:102890004093EF065093F0066093F1067093F206B2
:1028A0003EC04091EF065091F0066091F1067091A4
:1028B000F20641505109610971094093EF065093A6
:1028C000F0066093F1067093F20629C04091EF067E
:1028D0005091F0066091F1067091F2064E5F5F4FE5
:1028E0006F4F7F4F4093EF065093F0066093F106D1
:1028F0007093F20614C04091EF065091F00660917B
:10290000F1067091F2064250510961097109409334
:10291000EF065093F0066093F1067093F20690E094
:1029200095958795959587958093E306FF91EF910F
:102930009F918F917F916F915F914F910F900FBEFB
:102940000F901F9018951F920F920FB60F9211249F
:102950004F935F936F937F938F939F93EF93FF9327
:102960008091E30683708299846083998860482F00
:1029700050E04031510508F044C0FA01E65CFF4FD9
:102980000C94D01B4091EF065091F0066091F10637
:102990007091F2064F5F5F4F6F4F7F4F4093EF068E
:1029A0005093F0066093F1067093F2063EC040919A
:1029B000EF065091F0066091F1067091F2064150D9
:1029C0005109610971094093EF065093F006609335
:1029D000F1067093F20629C04091EF065091F0067F
:1029E0006091F1067091F2064E5F5F4F6F4F7F4F1F
:1029F0004093EF065093F0066093F1067093F20651
:102A000014C04091EF065091F0066091F10670916C
:102A1000F20642505109610971094093EF06509343
:102A2000F0066093F1067093F20690E09595879515
:102A3000959587958093E306FF91EF919F918F91F4
:102A40007F916F915F914F910F900FBE0F901F90EC
:102A500018951F920F920FB60F921124AF92BF924A
:102A6000CF92DF92EF92FF920F931F932F933F939A
:102A70004F935F936F937F938F939F93AF93BF9386
:102A8000CF93DF93EF93FF938091EC069091ED0647
:102A900001969093ED068093EC068091EC06909160
:102AA000ED06059709F0DFC02091EF063091F006A2
:102AB0004091F1065091F206A8E6B1E00E94D61BC3
:102AC00020E43FE140E050E00E94B11B8091EA0623
:102AD000280F2093EE068091EE06C091E4060C2E9E
:102AE000000CDD0BC81BD10987FDD395A090E7062C
:102AF000B090E806CE018A0D9B1D2AEF289FB001F9
:102B0000299F700D1124072E000C880B990B0E9431
:102B1000861A2DEC3CEC4CE45DE30E94121B6B0129
:102B20007C0100E911E0C09FB001C19F700DD09FF2
:102B3000700D1124072E000C880B990B0E94861A29
:102B40009B01AC01C701B6010E9470196B017C01A9
:102B5000CE018A199B09809FB001819F700D909FC3
:102B6000700D1124072E000C880B990B0E94861AF9
:102B70002DEC3CEC4CEC5DE30E94DC199B01AC01BC
:102B8000C701B6010E9470190E944E1A0091E50615
:102B90001091E606060F171F1093E6060093E50650
:102BA000D093E806C093E706003E8EE218074CF08B
:102BB00080EE9EE29093E6068093E506CFEFD3E0A9
:102BC00026C0003281ED18074CF480E291ED90931D
:102BD000E6068093E506CFEFD3E02BC0B8011123C2
:102BE00024F466277727601B710B072E000C880BD7
:102BF000990B0E94861A2DE837E94EEA5DE30E94A0
:102C0000121B0E94551AEB011016110684F44FEFA7
:102C100064E083E00E94BA1740E066E083E00E942F
:102C2000BA1740E0BE0184E00E94861811C011234B
:102C30007CF440E064E083E00E94BA174FEF66E066
:102C400083E00E94BA1740E0BE0184E00E9486182B
:102C50008CE682BF1092ED061092EC068091EB0696
:102C60008F5F8093EB06FF91EF91DF91CF91BF9142
:102C7000AF919F918F917F916F915F914F913F9114
:102C80002F911F910F91FF90EF90DF90CF90BF9009
:102C9000AF900F900FBE0F901F90189588EE91E0A7
:102CA00090933702809336021092B70680ED91E040
:102CB0009093C6068093C5061092C7061092C80668
:102CC0001092C9061092CA061092D0061092CF0632
:102CD0001092D1061092D2061092D3061092D4060A
:102CE0001092DA061092D9061092DB061092DC06DA
:102CF0001092DD061092DE061092E2061092E106B6
:102D000089E496E0EBE7F6E0DC011D921D92EA17FC
:102D1000FB07D9F72DEA36E0119211922E173F07E3
:102D2000D9F7A9E4B2E0E9E4F4E01D92EA17FB0761
:102D3000E1F71192E817F907E1F7109245021092B6
:102D400046021092470210924802A0E3B2E08CEDD6
:102D500091E011969C938E9312961D921D921D9256
:102D60001C921597E6E2F2E02DE831E031832083F2
:102D7000B383A28311861086E6E1F2E022EF31E010
:102D8000318320839783868310861186128613866B
:102D90008CEB92E09587848781E090E09787868727
:102DA00089E991E09583848308951F920F920FB66D
:102DB0000F9211248F939F93AF93BF938091F3064B
:102DC0009091F406A091F506B091F6060196A11D2A
:102DD000B11D8093F3069093F406A093F506B0938B
:102DE000F606BF91AF919F918F910F900FBE0F90FC
:102DF0001F90189585B58F7B85BD85B5886085BD8D
:102E00008BE083BD85B58F7E85BD85B58F7D85BD06
:102E100085B5816085BD85B5826085BD85B58460D9
:102E200085BD89B7806889BF0895F8946091F306DD
:102E30007091F4068091F5069091F60678940895C5
:102E4000549A539A529880B58F7B80BD80B58F7EFF
:102E500080BD80B58F7D80BD80B5877F80BD80B50A
:102E6000826080BD80B5846080BD10BC8CE089B973
:102E700008955D9BFECF8CB908955F9B03C08CB114
:102E800090E008958FEF9FEF0895813011F130F0B9
:102E90008230D1F1833009F452C008954F3F59F484
:102EA0002AB381E090E002C0880F991F6A95E2F78B
:102EB000822B8ABB089541115CC02AB381E090E067
:102EC00002C0880F991F6A95E2F7809582238ABB1A
:102ED00008954F3F59F427B381E090E002C0880F76
:102EE000991F6A95E2F7822B87BB0895411141C073
:102EF00027B381E090E002C0880F991F6A95E2F73E
:102F00008095822387BB08954F3F59F424B381E015
:102F100090E002C0880F991F6A95E2F7822B84BB6C
:102F20000895411126C024B381E090E002C0880FCB
:102F3000991F6A95E2F78095822384BB08954F3FDD
:102F400059F421B381E090E002C0880F991F6A957F
:102F5000E2F7822B81BB089541110BC021B381E0C0
:102F600090E002C0880F991F6A95E2F7809582234E
:102F700081BB0895813011F130F0823069F18330E6
:102F800009F445C008954F3F59F42BB381E090E018
:102F900002C0880F991F6A95E2F7822B8BBB0895B8
:102FA00041114FC02BB381E090E002C0880F991F00
:102FB0006A95E2F7809582238BBB08954F3F09F015
:102FC00040C028B381E090E002C0880F991F6A9545
:102FD000E2F7822B88BB08954F3F59F425B381E077
:102FE00090E002C0880F991F6A95E2F7822B85BB9B
:102FF0000895411126C025B381E090E002C0880FFA
:10300000991F6A95E2F78095822385BB08954F3F0B
:1030100059F422B381E090E002C0880F991F6A95AD
:10302000E2F7822B82BB089541110BC022B381E0ED
:1030300090E002C0880F991F6A95E2F7809582237D
:1030400082BB0895E199FECF9FBB8EBB6DBBE29A18
:10305000E19A0895E199FECF9FBB8EBBE09A8DB3B4
:1030600008958A988B98929A939A089578949BB72A
:1030700090649BBF811107C085B78E7F85BF85B7E0
:103080008D7F85BF0895813039F485B7816085BF14
:1030900085B78D7F85BF0895823039F485B78E7FDF
:1030A00085BF85B7826085BF0895833031F485B7C9
:1030B000816085BF85B7826085BF089578949BB78E
:1030C00090689BBF811107C085B78B7F85BF85B78F
:1030D000877F85BF0895813039F485B7846085BFC7
:1030E00085B7877F85BF0895823039F485B78B7F98
:1030F00085BF85B7886085BF0895833031F485B773
:10310000846085BF85B7886085BF0895442319F022
:103110004130B1F029C09FB59E7F9FBD9FB59260A1
:103120009FBD9EB598609EBD9EB590619EBD9FB5AA
:103130009F7B9FBD9FB590689FBD7BBD6ABD14C03E
:103140009FB59E7F9FBD9FB592609FBD9EB59860C5
:103150009EBD9EB590619EBD79BD68BD9FB59F7EA9
:103160009FBD9FB590629FBD8330F9F028F48130F8
:1031700041F0823081F036C0843009F1853049F168
:1031800031C08EB581608EBD8EB58D7F8EBD8EB502
:103190008B7F8EBD27C08EB58E7F8EBD8EB5826033
:1031A0008EBD8EB58B7F8EBD1DC08EB581608EBDF0
:1031B0008EB582608EBD8EB58B7F8EBD13C08EB5F1
:1031C0008E7F8EBD8EB58D7F8EBD8EB584608EBD9B
:1031D00009C08EB581608EBD8EB58D7F8EBD8EB5DA
:1031E00084608EBD8FEF93E097BD86BD0895CF922A
:1031F000DF92EF92FF920F931F93CF93DF938C0197
:10320000EB01688179818A819B8120E03AEC4AE96F
:103210005BE30E948F1BF801C080D180E280F380C5
:10322000C20ED31EE41EF51EC082D182E282F3825A
:10323000688379838A839B83DF91CF911F910F915C
:10324000FF90EF90DF90CF90089593B79F7B93BF4F
:1032500093B7977F93BF62BF8330F9F028F4813032
:1032600041F0823081F036C0843009F1853049F177
:1032700031C083B7816083BF83B78D7F83BF83B73E
:103280008B7F83BF27C083B78E7F83BF83B7826066
:1032900083BF83B78B7F83BF1DC083B7816083BF2C
:1032A00083B7826083BF83B78B7F83BF13C083B72D
:1032B0008E7F83BF83B78D7F83BF83B7846083BFD7
:1032C00009C083B7816083BF83B78D7F83BF83B716
:1032D000846083BF89B7816089BF7894089550580E
:1032E000BB27AA270E9487190C94D81A0E94CA1AD1
:1032F00038F00E94D11A20F039F49F3F19F426F4D7
:103300000C94C71A0EF4E095E7FB0C94C11AE92F50
:103310000E94E91A58F3BA176207730784079507E2
:1033200020F079F4A6F50C940B1B0EF4E0950B2E0F
:10333000BA2FA02D0B01B90190010C01CA01A00107
:103340001124FF27591B99F0593F50F4503E68F162
:103350001A16F040A22F232F342F4427585FF3CFA3
:10336000469537952795A795F0405395C9F77EF474
:103370001F16BA0B620B730B840BBAF09150A1F0BD
:10338000FF0FBB1F661F771F881FC2F70EC0BA0F43
:10339000621F731F841F48F4879577956795B795CB
:1033A000F7959E3F08F0B0CF9395880F08F09927C6
:1033B000EE0F9795879508950E94F0190C94D81AEE
:1033C0000E94D11A58F00E94CA1A40F029F45F3FB7
:1033D00029F00C94C11A51110C940C1B0C94C71AAF
:1033E0000E94E91A68F39923B1F3552391F3951BD1
:1033F000550BBB27AA2762177307840738F09F5F16
:103400005F4F220F331F441FAA1FA9F335D00E2E82
:103410003AF0E0E832D091505040E695001CCAF7EF
:103420002BD0FE2F29D0660F771F881FBB1F2617B2
:1034300037074807AB07B0E809F0BB0B802DBF0189
:10344000FF2793585F4F3AF09E3F510578F00C9458
:10345000C11A0C940C1B5F3FE4F3983ED4F386959D
:1034600077956795B795F7959F5FC9F7880F911D79
:103470009695879597F90895E1E0660F771F881F65
:10348000BB1F621773078407BA0720F0621B730B18
:10349000840BBA0BEE1F88F7E09508950E94551A29
:1034A0006894B1110C940C1B08950E94F11A88F0D5
:1034B0009F5798F0B92F9927B751B0F0E1F0660FF8
:1034C000771F881F991F1AF0BA95C9F714C0B13039
:1034D00091F00E940B1BB1E008950C940B1B672F19
:1034E000782F8827B85F39F0B93FCCF38695779568
:1034F0006795B395D9F73EF4909580957095619551
:103500007F4F8F4F9F4F0895E89409C097FB3EF47B
:1035100090958095709561957F4F8F4F9F4F992320
:10352000A9F0F92F96E9BB279395F695879577959E
:103530006795B795F111F8CFFAF4BB0F11F460FF5E
:103540001BC06F5F7F4F8F4F9F4F16C0882311F0B6
:1035500096E911C0772321F09EE8872F762F05C0CA
:10356000662371F096E8862F70E060E02AF09A9565
:10357000660F771F881FDAF7880F9695879597F95A
:10358000089597F99F6780E870E060E008959FEFE5
:1035900080EC089500240A941616170618060906EA
:1035A000089500240A9412161306140605060895B9
:1035B000092E0394000C11F4882352F0BB0F40F441
:1035C000BF2B11F460FF04C06F5F7F4F8F4F9F4F81
:1035D000089557FD9058440F551F59F05F3F71F003
:1035E0004795880F97FB991F61F09F3F79F087956A
:1035F0000895121613061406551FF2CF4695F1DFF3
:1036000008C0161617061806991FF1CF8695710582
:10361000610508940895E894BB2766277727CB01B6
:1036200097F908950E94251B0C94D81A0E94CA1A73
:1036300038F00E94D11A20F0952311F00C94C11A91
:103640000C94C71A11240C940C1B0E94E91A70F3F5
:10365000959FC1F3950F50E0551F629FF001729F37
:10366000BB27F00DB11D639FAA27F00DB11DAA1F46
:10367000649F6627B00DA11D661F829F2227B00D93
:10368000A11D621F739FB00DA11D621F839FA00D1E
:10369000611D221F749F3327A00D611D231F849F6E
:1036A000600D211D822F762F6A2F11249F575040C5
:1036B0009AF0F1F088234AF0EE0FFF1FBB1F661F40
:1036C000771F881F91505040A9F79E3F510580F009
:1036D0000C94C11A0C940C1B5F3FE4F3983ED4F396
:1036E000869577956795B795F795E7959F5FC1F7AD
:1036F000FE2B880F911D9695879597F90895DB010C
:103700008F939F930E94D61BBF91AF91A29F800D74
:10371000911DA39F900DB29F900D11240895A1E2D9
:103720001A2EAA1BBB1BFD010DC0AA1FBB1FEE1F3B
:10373000FF1FA217B307E407F50720F0A21BB30B86
:10374000E40BF50B661F771F881F991F1A9469F702
:1037500060957095809590959B01AC01BD01CF015E
:103760000895052E97FB1EF400940E94C81B57FD78
:1037700007D00E948F1B07FC03D04EF40C94C81B8B
:1037800050954095309521953F4F4F4F5F4F08958D
:1037900090958095709561957F4F8F4F9F4F0895BD
:1037A000EE0FFF1F0590F491E02D09940E94E11B9C
:1037B000A59F900DB49F900DA49F800D911D112485
:1037C0000895A29FB001B39FC001A39F700D811DFA
:1037D0001124911DB29F700D811D1124911D08951A
:1037E000A0E0B0E0E6EFFBE10C94E41DEC010097F3
:1037F00021F4CB010E94BF1CB4C0FC01E60FF71FEF
:103800009C0122503109E217F30708F4A8C0D9013E
:103810000D911C91119706171707B0F0053011058F
:1038200008F49BC0C80104978617970708F495C051
:1038300002501109061B170B019311936D937C9392
:10384000CF010E94571D89C05B01A01AB10A4C012B
:10385000800E911EA091F906B091FA06612C712C90
:10386000E12CF12C109709F446C08D919C91119791
:10387000A815B905B1F56C0142E0C40ED11CCA14FB
:10388000DB0478F14C018A189B08640142E0C40E05
:10389000D11C1296BC9012971396AC91B5E0CB1642
:1038A000D10440F0B282A38391828082D9016D93CA
:1038B0007C9309C00E5F1F4F800F911FF901918308
:1038C0008083EB2DFA2FE114F10431F0D701139628
:1038D000FC93EE93129741C0F093FA06E093F90639
:1038E0003CC06816790608F43C017D0112960D90E3
:1038F000BC91A02DB7CF8091F7069091F80688165D
:103900009906E1F466167706C8F4809160009091FC
:103910006100009741F48DB79EB7409164005091CB
:103920006500841B950BE817F907C8F4F093F806B7
:10393000E093F706F901718360830FC0CB010E9409
:10394000BF1C7C01009759F0A801BE010E94B61C63
:10395000CE010E94571DC70104C0CE0102C080E005
:1039600090E0CDB7DEB7EEE00C94001EFB01DC0169
:1039700002C001900D9241505040D8F708950F9326
:103980001F93CF93DF938230910510F482E090E093
:10399000E091F906F091FA0620E030E0A0E0B0E016
:1039A000309719F1408151810281138148175907DD
:1039B000C8F08417950769F4109731F012960C93AC
:1039C000129713961C9327C00093F9061093FA06DA
:1039D00022C02115310519F04217530718F49A0136
:1039E000BD01EF01DF01F801DBCF21153105F9F051
:1039F000281B390B2430310580F48A819B816115A5
:103A0000710521F0FB019383828304C09093FA0631
:103A10008093F906FE01329644C0FE01E20FF31FC7
:103A20008193919322503109398328833AC02091A0
:103A3000F7063091F806232B41F420916200309173
:103A400063003093F8062093F706209160003091D0
:103A500061002115310541F42DB73EB74091640056
:103A600050916500241B350BE091F706F091F806A4
:103A7000E217F307A0F42E1B3F0B2817390778F045
:103A8000AC014E5F5F4F2417350748F04E0F5F1FA4
:103A90005093F8064093F7068193919302C0E0E0BB
:103AA000F0E0CF01DF91CF911F910F910895CF9357
:103AB000DF93009709F481C0FC01329713821282D0
:103AC000A091F906B091FA06109781F42081318116
:103AD000820F931F2091F7063091F80628173907B7
:103AE00051F5F093F806E093F70667C0ED0120E08A
:103AF00030E0CE17DF0740F44A815B819E0141151B
:103B00005105F1F0EA01F5CFD383C28340815181A1
:103B1000840F951FC817D90759F488819981840F9C
:103B2000951F0296918380838A819B8193838283F0
:103B30002115310529F4F093FA06E093F9063DC00A
:103B4000E901FB83EA8349915991C40FD51FEC1712
:103B5000FD0761F480819181840F951F0296E90130
:103B600099838883828193819B838A83E0E0F0E05C
:103B700012968D919C911397009719F0FD01DC012D
:103B8000F7CF8D919C9111979D012E5F3F4F820F32
:103B9000931F2091F7063091F8062817390769F42A
:103BA000309729F41092FA061092F90602C0138297
:103BB0001282B093F806A093F706DF91CF91089593
:103BC0002F923F924F925F926F927F928F929F922D
:103BD000AF92BF92CF92DF92EF92FF920F931F931B
:103BE000CF93DF93CDB7DEB7CA1BDB0B0FB6F894CC
:103BF000DEBF0FBECDBF09942A88398848885F840C
:103C00006E847D848C849B84AA84B984C884DF807C
:103C1000EE80FD800C811B81AA81B981CE0FD11D60
:103C20000FB6F894DEBF0FBECDBFED010895F89436
:023C3000FFCFC4
:103C32000000FB0620007374645F6D7367732F547A
:103C4200696D650063643731363663373463353501
:103C5200326333313166626363326665356137627E
:103C62006332383900726F7373657269616C5F6DAC
:103C72007367732F546F706963496E666F003061AA
:103C820064353166383866633434383932663863BD
:103C920031303638343037373634363030350072DA
:103CA2006F7373657269616C5F6D7367732F4C6FAD
:103CB200670031316162643733316332353933330E
:103CC20032363163643631383362643132643632CB
:103CD20039350039663065393862646136353938CC
:103CE2003139383664646635336166613761343040
:103CF200653439007374645F6D7367732F496E7432
:103D02003332006461353930396662653337386180
:103D1200656166383565353437653833306363310C
:103D2200626237004D6573736167652066726F6DFD
:103D3200206465766963652064726F707065643AA9
:103D4200206D657373616765206C617267657220AF
:103D52007468616E206275666665722E00737465A2
:103D620065725F616E676C65004D50435F537465A9
:103D72006572416E676C6500000000007500990075
:103D8200DF00E20000000000EC02E50019021C0264
:103D920000000000A5031F02800283020000000051
:103DA200E3030A0586028902000000008C02A002D9
:103DB200B602B902000000000807B307E7020000DC
:103DC2000000C102DD02E102E402726F73736572E8
:103DD20069616C5F6D7367732F526571756573747A
:063DE200506172616D00EA
:00000001FF
