:100000000C942B000C94B0130C9453000C945300DC
:100010000C944E150C9453000C9453000C94530004
:100020000C9453000C9453000C9453000C945814EB
:100030000C9453000C9453000C9453000C945300F4
:100040000C9453000C9453000C9453000C945300E4
:100050000C945300CB1411241FBECFE5D8E0DEBFB3
:10006000CDBF12E0A0E6B0E0EEE6F8E302C00590F6
:100070000D92A631B107D9F726E0A6E1B2E001C0A2
:100080001D92A93FB207E1F710E0CBE2D0E004C037
:100090002197FE010E94F919CA32D107C9F70E94BF
:1000A000920D0C94351C0C940000DC01FB0112969F
:1000B0008C911297808313968C9113978183149659
:1000C0008C911497828315968C911597838316963D
:1000D0008C911697848317968C9117978583189621
:1000E0008C911897868319968C91878388E090E08D
:1000F0000895FC01DB014C9150E060E070E0428328
:1001000053836483758311968C911197582B428386
:1001100053836483758312968C911297682B428364
:1001200053836483758313968C911397782B428342
:1001300053836483758314964C91149750E060E068
:1001400070E0468357836087718715968C91159769
:10015000582B468357836087718716968C91169724
:10016000682B468357836087718717968C91782B0D
:10017000468357836087718788E090E0089586E61C
:1001800090E0089584E790E008954F925F926F9217
:100190007F928F929F92AF92BF92CF92DF92EF9217
:1001A000FF920F931F93CF93DF93EB01288130E0F1
:1001B000DC0113963C932E9312974981342B1396AE
:1001C0003C932E931297FB01329620E030E0C12C35
:1001D000D12C76010EC046015701B6E08B0E911C62
:1001E000A11CB11CE7E08E169104A104B104B8F47F
:1001F00026C0419150E0022E02C0440F551F0A94C0
:10020000E2F7052E000C660B770BC42AD52AE62AE6
:10021000F72A285F3F4F2032310559F7DCCFFE0126
:10022000359626E030E0418141932F5F3F4FA90191
:1002300060E070E0481559056A057B05A0F386016A
:10024000FE01EC0DFD1D15829E012B5F3F4FDC0171
:1002500015963C932E931497D6011696FE01EA0F3D
:10026000FB1F20E030E040E050E0BA01C190D12C0B
:10027000022E02C0CC0CDD1C0A94E2F70D2C000CFF
:10028000EE08FF084C295D296E297F29285F3F4F22
:100290002032310559F714964D010B2E000CAA0897
:1002A000BB08840E951EA61EB71E6D01E12CF12C15
:1002B000C814D904EA04FB04A8F4F8013996EC0F39
:1002C000FD1F21E030E07901EC1AFD0A2181219324
:1002D00087010E0F1F1F20E030E0081519052A05C1
:1002E0003B05A0F34A0F5B1FBE01640F751F9B0106
:1002F00021503109F90110821197AC0FBD1FFC018B
:10030000B783A683FB0160E070E0C12CD12C76019D
:10031000019110E0062E02C0000F111F0A94E2F7AF
:10032000012E000C220B330BC02AD12AE22AF32A19
:10033000685F7F4F6032710559F7BA016C5F7F4F7C
:100340002B01072E000C660877084C0C5D1C6E1CF8
:100350007F1C8B0120E030E00415150526053705CC
:1003600090F44D5F5F4FFE01E40FF51F9B0141814B
:1003700041932F5F3F4F4901A12CB12C8414950468
:10038000A604B704A0F3C60ED71EFE01EC0DFD1D9A
:10039000DF0111971C9261507109C60FD71FDC0154
:1003A0001996DC93CE9318972181428150E060E04A
:1003B00070E0BA0155274427522B2081422B23811C
:1003C000722BFC014287538764877587C6010496A8
:1003D000DF91CF911F910F91FF90EF90DF90CF9021
:1003E000BF90AF909F908F907F906F905F904F9055
:1003F000089585E990E008958EEA90E008958F923F
:100400009F92AF92BF92CF92DF92EF92FF92CF93E3
:10041000DF93DC01EB01FB01819112968C93129723
:1004200020E030E0C12CD12C76010EC046015701EE
:1004300085E0880E911CA11CB11C86E088169104F1
:10044000A104B104B8F426C0419150E0022E02C0CC
:10045000440F551F0A94E2F7052E000C660B770B2C
:10046000C42AD52AE62AF72A285F3F4F20323105D1
:1004700059F7DCCFFE01349625E030E0818181938D
:100480002F5F3F4FA90160E070E0481559056A05EC
:100490007B05A0F3FE01EC0DFD1D1482249614963D
:1004A000DC93CE931397C6010596DF91CF91FF9011
:1004B000EF90DF90CF90BF90AF909F908F90089576
:1004C0008FEC90E0089582EE90E0089589EF91E03E
:1004D000089583E091E00895FC012281FB012083CF
:1004E000FC018381FB01818382E090E00895FB01A0
:1004F000208130E0FC0133832283FB014181342BD6
:10050000FC013383228382E090E0089584E291E04D
:10051000089584E391E00895FC0182819381909392
:10052000E0068093DF060895DB012C9130E0FC01AA
:100530003187208711964C91342B31872087028494
:10054000F385E02D069609950895FC01848595852F
:10055000089584E291E0089584E391E008958F572F
:100560009B4FFC01808108958F929F92AF92BF9222
:10057000CF92DF92EF92FF920F931F93CF93DF936F
:100580007C018B01DC0112968C911297FB01808318
:1005900013968C91139781831496ED91FC91159786
:1005A000EF0109900020E9F72197CE1BDF0BCE0168
:1005B000A0E0B0E0FB01C2839383A483B583D7019D
:1005C00014966D917C911597AE01C80106960E9414
:1005D000D41A2696F701A681B781FD01019000206B
:1005E000E9F731976F01CA1ADB0AC601A0E0B0E053
:1005F000F801EC0FFD1F20E030E0AC01BD01022E40
:1006000004C076956795579547950A94D2F741931C
:10061000285F3F4F2032310581F72496D701169687
:100620006D917C911797A601C8018C0F9D1F0E94A8
:10063000D41ACC0DDD1DD7011896ED91FC911997B8
:10064000DF010D900020E9F711976D01CE1ADF0A46
:100650004601A12CB12CF801EC0FFD1F80E090E0C9
:10066000B501A401082E04C0769567955795479566
:100670000A94D2F7419308968032910589F724961F
:10068000F70160857185A601C8018C0F9D1F0E942E
:10069000D41AC6018C0F9D1FD7011A965C911A9728
:1006A0001B964C911B971C963C911C971D962C9168
:1006B000F801E80FF91F50834183328323830496A6
:1006C000DF91CF911F910F91FF90EF90DF90CF902E
:1006D000BF90AF909F908F900895CF92DF92EF924E
:1006E000FF92CF93DF93DC01CB0112962C911297EE
:1006F000FB01219313962D913C911497E9010990E8
:100700000020E9F72197C21BD30B6E01E12CF12CDD
:1007100020E030E0B701A601022E04C0769567956F
:10072000579547950A94D2F74193285F3F4F20325F
:10073000310581F713966D917C911497AE01059662
:100740000E94D41ACE010596DF91CF91FF90EF90D1
:10075000DF90CF9008954F925F926F927F92AF9209
:10076000BF92CF92DF92EF92FF920F931F93CF939E
:10077000DF93DC0112962C911297FB0120831396D4
:100780002C911397218314962C91149722831596FC
:100790002C911597238312960D911D912D913C91CB
:1007A0001597012B022B032B71F1DB0100E010E008
:1007B0009801C4E0D0E0FC0142855385FA01EC0FBA
:1007C000FD1F3497E080F180528143811496EC92B2
:1007D00014971596FC92159716965C931697179694
:1007E0004C93179724960F5F1F4F2F4F3F4F149630
:1007F000FC01C280D380E480F5800C151D052E0518
:100800003F05C8F202C0C4E0D0E0DB01AC0FBD1F61
:10081000FC0124852C93258511962C931197268510
:1008200012962C931297278513962C931397249640
:100830000485158526853785012B022B032B69F14D
:1008400040E050E000E010E09801FC01E488F58809
:10085000F701E40FF51FD080E180F280E381149668
:10086000DC9214971596EC9215971696FC921697B3
:100870001796EC93179724960F5F1F4F2F4F3F4FFC
:100880004C5F5F4F1496FC01C484D584E684F784E2
:100890000C151D052E053F05C0F2FB01EC0FFD1FD9
:1008A000DC0156962C915697208357962C9157979A
:1008B000218358962C915897228359962C915997B9
:1008C0002383249656960D911D912D913C91599715
:1008D000012B022B032B09F455C05B018C01C12CA9
:1008E000D12C412C512C3201D8015C96ED91FC9118
:1008F0005D97EC0DFD1DA081B181FD0101900020EF
:10090000E9F731977F01EA1AFB0AA70160E070E07E
:10091000F501EC0FFD1F20E030E0DB01CA01022EE3
:1009200004C0B695A795979587950A94D2F78193B9
:10093000285F3F4F2032310581F72496D8015C961D
:10094000ED91FC915D97EC0DFD1D60817181A7011A
:10095000C5018C0F9D1F0E94D41ACE0DDF1DBFEF65
:100960004B1A5B0A6B0A7B0AE2E0CE0ED11CF8013F
:1009700086899789A08DB18D481659066A067B062F
:1009800008F4B2CFCE01DF91CF911F910F91FF906C
:10099000EF90DF90CF90BF90AF907F906F905F907F
:1009A0004F9008952F923F924F925F926F927F9255
:1009B0008F929F92AF92BF92CF92DF92EF92FF926F
:1009C0000F931F93CF93DF9300D000D000D0CDB70B
:1009D000DEB79E838D838B01DB018C9111969C91F8
:1009E00011971296CC901297D12CE12CF12C760114
:1009F000DD24CC24D92AC82A13968C91F82AED81BB
:100A0000FE8182819381A481B5818C159D05AE05FF
:100A1000BF0578F4B601660F771F660F771F8285D2
:100A200093850E940E1AAD81BE811B969C938E9376
:100A30001A97ED81FE81C282D382E482F582CD28AD
:100A4000CE28CF2809F456C0F80140E050E0BA01A2
:100A50006894EE24E2F8F12C2D813E812A5F3F4F0D
:100A6000D580868190E0A0E0B0E0DC01992788275E
:100A70009D29D4808D29D7804C015D01BD28AD8191
:100A8000BE8116968D929D92AD92BC921997670188
:100A900084E0C81AD10894E0E90EF11CAD81BE8152
:100AA0001A968D919C911B97C80ED91ED9018D91D4
:100AB0009C91D6018D939C93D90112968D919C9116
:100AC0001397D60113969C938E9312974F5F5F4FA7
:100AD0006F4F7F4F3496AD81BE8112968D909D9061
:100AE000AD90BC901597481559056A057B0508F42B
:100AF000B7CF04C06894EE24E2F8F12C6801CE0C64
:100B0000DF1CF601808191818280912CA12CB12C77
:100B1000540199248824992A882A8381B82AF4E0E8
:100B2000EF0EF11CED81FE8184859585A685B78544
:100B300088159905AA05BB0578F4B401660F771FDF
:100B4000660F771F848995890E940E1AAD81BE8138
:100B500055969C938E935497ED81FE81848695865D
:100B6000A686B78689288A288B2809F452C0F60100
:100B700020E030E0812C912C54014D815E81405F5A
:100B80005F4F6581868190E0A0E0B0E0DC019927AD
:100B90008827962B6481862B67812C013D01762A5C
:100BA000AD81BE8150964D925D926D927C9253972D
:100BB000B4E0EB0EF11CAD81BE8154966D917C9139
:100BC0005597620F731FDA018D919C91DB018D9314
:100BD0009C93DA0112968D919C911397DB011396E9
:100BE0009C938E931297BFEF8B1A9B0AAB0ABB0A9A
:100BF0002C5F3F4F3496AD81BE811C964D905D9029
:100C00006D907C901F9784149504A604B70408F493
:100C1000B8CFF801EE0DFF1D808191818280912C6B
:100C2000A12CB12C540199248824992A882A8381E3
:100C3000B82AB4E0EB0EF11CED81FE81868997891C
:100C4000A08DB18D88159905AA05BB0568F4B4017E
:100C5000660F771F848D958D0E940E1AAD81BE811F
:100C60005D969C938E935C97ED81FE81868A978A30
:100C7000A08EB18E89288A288B2809F477C0A0E03D
:100C8000B0E0812C912C54017A96FC83EB83FA829C
:100C9000E982F801EE0DFF1D80E090E040E050E0B9
:100CA000BA01219130E0082E02C0220F331F0A94AE
:100CB000E2F72901330F6608770844295529662988
:100CC000772908968032910561F7C70104966C0177
:100CD000092E000CEE08FF08C40ED51EE61EF71EF6
:100CE0001C01412C512C2C143D044E045F0490F443
:100CF000E981FA813396E00FF11F9C0171807192B6
:100D00002F5F3F4F2901612C712C4C145D046E0440
:100D10007F04A0F3480F591FF801E40FF51F319726
:100D200010820197800F911FED81FE81938F828F3A
:100D30007A01248D358D2A0F3B1FEB81FC81808148
:100D40009181F90191838083FFEF8F1A9F0AAF0A87
:100D5000BF0A1296ED81FE8146895789608D718D9B
:100D600084169506A606B70608F491CFC701269605
:100D70000FB6F894DEBF0FBECDBFDF91CF911F91AC
:100D80000F91FF90EF90DF90CF90BF90AF909F902A
:100D90008F907F906F905F904F903F902F9008952D
:100DA000CF92DF92EF92FF920F931F93CF93DF9337
:100DB00000D000D01F92CDB7DEB7643671053CF08D
:100DC000FC01EF57FB4F2081222309F47EC0DA019A
:100DD0007B018C01BC01665E7D4FED91FC91019021
:100DE000F081E02DCA010995DC01F801ED5EFD4FAF
:100DF0008FEF808331968EEF80833196A08331967A
:100E0000B08331968B2F8A0F809580833196E08254
:100E10003196F082BD01695F7F4F663071057CF0CD
:100E20003197AD01465E5D4F400F511F20E030E02D
:100E30009191290F311DE417F507D1F702C020E089
:100E400030E07D0188E0E80EF11C600F711FFB01AE
:100E5000ED5EFD4F307833232CF4215031093F6F84
:100E60002F5F3F4F20952083E1E0EE16E2E0FE0683
:100E700094F40D5E1D4F1E141F0454F5680118965E
:100E80000A0F1B1FD6018D916D010E94B215C0166D
:100E9000D106C1F720C083EC91E09A83898383E077
:100EA0008B8385E591E09D838C83D801ED91FC9146
:100EB0000190F081E02DAE014F5F5F4F67E070E081
:100EC000C80109958FEF9FEF08C080E090E005C052
:100ED0008E2D9F2D02C08E2D9F2D0F900F900F9065
:100EE0000F900F90DF91CF911F910F91FF90EF9096
:100EF000DF90CF9008952F923F924F925F926F9222
:100F00007F928F929F92AF92BF92CF92DF92EF9299
:100F1000FF920F931F93CF93DF93CDB7DEB7E29786
:100F20000FB6F894DEBF0FBECDBF1C010E948E1518
:100F30002B013C01F101EA57FB4F80819181A28195
:100F4000B38153014201881A990AAA0ABB0A09EF20
:100F500080160AE29006A104B10410F035971082C1
:100F6000F101E958FB4F80819181892B69F07396DB
:100F700080819181A281B38184159505A605B7056D
:100F800018F4739711821082610111E8C11A1BEFE6
:100F9000D10A710129E8E21A2BEFF20A8101055802
:100FA0001B4F1C8B0B8B0A5F1F4F1A8B098B025F29
:100FB0001F4F188B0F870150110918A30F8F0F8532
:100FC0001889065E1F4F1E8F0D8F0F851889005FD1
:100FD0001F4F1A8F098F0F8518890A5F1F4F1C8FAB
:100FE0000B8F5301420114E1810E911CA11CB11C15
:100FF000F10187859089A189B289892B8A2B8B2B56
:1010000099F00E948E15DC01CB0184199509A6097F
:10101000B709F10107851089218932890817190755
:101020002A073B0708F45DC50E94B61599230CF406
:1010300017C5D6012D913C911197280F391F2D937B
:101040003C93F7014081518147305105F9F4F1019A
:10105000E358FB4F20813181A9014F5F5F4F5183DE
:101060004083F101E20FF31F838BF101E758FB4F3F
:1010700080819181019791838083892B09F0B8CF7A
:1010800088E090E0D7018D939C93B2CF4115510534
:1010900029F58F3F910569F481E090E0F701918394
:1010A0008083F101E657FB4F80829182A282B38256
:1010B0009FCF0E948E15DC01CB0184199509A609EA
:1010C000B70989389341A105B10508F491CFF10121
:1010D000EF57FB4F10828EEF9FEF0BC5413051054C
:1010E00089F58E3F910529F482E090E09183808319
:1010F0007FCFF70111821082A989BA898C91811161
:1011000077CF8BEA91E09A8389831B821C821D82B0
:101110001E821F82188619861A86D101ED91FC91D4
:101120000190F081E02DAE014F5F5F4F6AE070E00B
:10113000C10109950E948E15F10163837483858333
:10114000968356CF4230510589F4F101E758FB4FA1
:101150009183808334961182108223E030E0D7019E
:101160002D933C93F6019183808342CF4330510508
:1011700089F4F101E758FB4F982F882720813181AE
:10118000820F931F9183808384E090E0D7018D9339
:101190009C932ECF44305105A9F4307833232CF49E
:1011A000215031093F6F2F5F3F4F2F3F310531F401
:1011B00085E090E0F701918380831ACFD7011D92DB
:1011C0001C9216CF4530510569F4EB89FC89918357
:1011D000808326E030E0D7012D933C93F601918384
:1011E000808306CF46305105F1F4982F8827AB89CC
:1011F000BC892D913C911197820F931F8D939C93E5
:1012000087E090E0F70191838083F101E758FB4F7D
:1012100080819181892B09F0EBCE88E090E0D701A5
:101220008D939C93E5CE4830510509F0E1CEF7014E
:1012300011821082307833232CF4215031093F6F12
:101240002F5F3F4F2F3F310509F0D2CEAB89BC89CC
:101250008D919C91009709F0E3C08BEA91E09A830D
:1012600089831B821C821D821E821F82188619861A
:101270001A86D101ED91FC910190F081E02DAE0133
:101280004F5F5F4F6AE070E0C10109950E948E15C3
:10129000F101638374838583968387EB91E09A835E
:1012A00089831C821B828DE891E09E838D839887C1
:1012B0008F839A8789871B861C861D861E867101EF
:1012C000FDEEEF1AFBEFFF0A81010B5B1B4F812C38
:1012D000912C5401689491F8D701ED91FC913097CD
:1012E000A9F1848195819C838B83808191819E83E8
:1012F0008D8382819381DC01ED91FC910480F581E5
:10130000E02D099598878F83D701ED91FC9182811B
:101310009381DC01ED91FC910680F781E02D099528
:101320009A8789878B869C86AD86BE86D701ED918C
:10133000FC9160857185D101ED91FC910190F08166
:10134000E02DAE014F5F5F4FC1010995B2E0EB0E9A
:10135000F11CE016F10609F0BFCF7101E9E8EE1AC1
:10136000EBEFFE0A812C912C5401689491F8F8015E
:10137000A081B1811097E1F112968D919C91139704
:101380009C838B8314968D919C9115979E838D835E
:10139000ED91FC9111970480F581E02DCD01099527
:1013A00098878F83D8018D919C91DC01ED91FC9100
:1013B0000680F781E02D09959A8789878B869C8620
:1013C000AD86BE86D101ED91FC91C080D180F8013F
:1013D00080819181DC01ED91FC910280F381E02D0F
:1013E0000995AE014F5F5F4FBC01C101F601099540
:1013F0000E5F1F4FE016F10609F0B9CFF101EF576C
:10140000FB4F81E0808331964082518262827382F9
:10141000349640825182628273828FEF9FEF69C35C
:101420008A30910509F0C5C00E948E15D10113962E
:101430000D911D912D913C911697601B710B820BA4
:10144000930B69A77AA78BA79CA754968C91549766
:1014500055962C915597422F50E060E070E0BA010C
:1014600055274427582B53968C915397482B5696C3
:101470008C918A019B01382BA901980121503109D7
:101480004109510929A33AA34BA35CA3D101589662
:101490002C91589759968C9190E0A0E0B0E0DC0137
:1014A00099278827922BF1012789822B228DB22B35
:1014B0008C019D0116532546344C0D8B1E8B2F8BB2
:1014C000388F0E948E156DA37EA38FA398A769A560
:1014D0007AA58BA59CA528EE33E040E050E00E9461
:1014E000CC1969A77AA78BA79CA769A17AA18BA120
:1014F0009CA1620F731F841F951F69A37AA38BA3FE
:101500009CA36DA17EA18FA198A528EE33E040E0B9
:1015100050E00E94CC196DA37EA38FA398A789A148
:101520009AA1ABA1BCA1821B930BA40BB50BF1013B
:1015300087839087A187B28729A53AA54BA55CA58B
:1015400060E472E48FE090E00E94BC190D891E896E
:101550002F89388D060F171F281F391F0D8B1E8BE3
:101560002F8B388F2DA13EA14FA158A560E472E4C6
:101570008FE090E00E94BC190D891E892F89388D5B
:10158000061B170B280B390B038714872587368713
:10159000B101655F7F4FC10107960E9434170E9419
:1015A0008E15F101EA57FB4F608371838283938329
:1015B0001FCD8630910509F033C281010D5E1F4FAA
:1015C0001AA309A3D10153962C91539754963C9199
:1015D000549755968C9190E0A0E0B0E0DC019927FB
:1015E0008827932B822BF1012689AC01BD01722B38
:1015F0004D8B5E8B6F8B788FEF85F889828193811D
:10160000A481B58184179507A607B70778F4BA01B6
:10161000660F771F660F771F828593850E940E1ACB
:10162000AF85B8891B969C938E931A970D891E8956
:101630002F89388DAF85B88912960D931D932D9300
:101640003C931597012B022B032B09F454C0A9A13D
:10165000BAA1E4E0F0E0FE8BED8B40E050E0BA018F
:1016600015968C91159716969C911697092F10E058
:1016700020E030E0980111270027182B14968C9158
:101680001497082B17968C911797382BEF85F889AC
:101690000683178320873187ED89FE89CF01049760
:1016A0008F010C5F1F4F1E8B0D8BEF85F8892285F4
:1016B0003385280F391FEB8DFC8D80819181F901D5
:1016C00091838083EB8DFC8D82819381F9019383DB
:1016D00082834F5F5F4F6F4F7F4F1496EF85F8897E
:1016E00002811381248135814017510762077307F6
:1016F00008F4B6CF04C004E010E01E8B0D8B09A1E6
:101700001AA12D893E89020F131F1EA30DA3D80114
:101710004C9111965C91119712968C9190E0A0E0FB
:10172000B0E0DC0199278827952B842BF8014381B1
:101730008C019D01342B09A71AA72BA73CA70D8963
:101740001E890C5F1F4FEF85F88984859585A685D6
:10175000B78529A53AA54BA55CA582179307A407D1
:10176000B50778F4B901660F771F660F771F848974
:1017700095890E940E1AAF85B88955969C938E93D1
:10178000549729A53AA54BA55CA5AF85B8891C96A9
:101790002D933D934D935C931F97232B242B252B47
:1017A00009F461C0EDA1FEA120E030E040E050E08E
:1017B000BA01FAA7E9A7FE8AED8A8FA698AAA9AA74
:1017C000BAAAE9A5FAA5F580868190E0A0E0B0E08C
:1017D000DC01992788279F29F4808F29F7804C0105
:1017E0005D01BF288DA29EA2AFA2B8A6AF85B88921
:1017F00050968D929D92AD92BC9253970C5F1F4F65
:101800005496ED90FC905597E20EF31EE98DFA8DFB
:1018100080819181D70111969C938E9382819381CF
:1018200013969C938E9312974F5F5F4F6F4F7F4F2E
:101830002C5F3F4FE9A5FAA53496FAA7E9A7AF8533
:10184000B8891C968D909D90AD90BC901F974815BF
:1018500059056A057B0508F4B4CFED88FE888FA48E
:1018600098A8A9A8BAA8E9A1FAA1E00FF11F2081C0
:101870003181828190E0A0E0B0E0DC0199278827E7
:10188000932B822B2381AC01BD01722B4D8B5E8B80
:101890006F8B788F0C5F1F4FEF85F889868997894A
:1018A000A08DB18D84179507A607B70768F4BA0114
:1018B000660F771F848D958D0E940E1AAF85B889AB
:1018C0005D969C938E935C972D893E894F89588DA8
:1018D000AF85B88956962D933D934D935C93599758
:1018E000232B242B252B09F496C01AA619A61DA27A
:1018F0001EA21FA218A61EA70DA7E9A1FAA1E00F1C
:10190000F11F20E030E01D8A1E8A1F8A188E40E0F9
:1019100050E0BA01819190E0022E02C0880F991F19
:101920000A94E2F7092E000CAA0BBB0B482B592B8B
:101930006A2B7B2B285F3F4F2032310559F74D8BA7
:101940005E8B6F8B788FD80114968D010B2E000C57
:10195000220B330B040F151F261F371FAD0160E04C
:1019600070E0401751076207730798F4EDA5FEA5D4
:10197000339649A15AA1E40FF51FCD01418141934E
:101980000196AC0160E070E04017510762077307F1
:10199000A8F30D891E890A0F1B1FE9A1FAA1E00F08
:1019A000F11F31971082119769A17AA1A60FB71F75
:1019B000EF85F889B38FA28F048CF58DE02D29A5D2
:1019C0003AA5E20FF31FAD8DBE8D8D919C91918351
:1019D00080832DA13EA14FA158A52F5F3F4F4F4FB0
:1019E0005F4F2DA33EA34FA358A749A55AA54E5F0D
:1019F0005F4F5AA749A7EF85F88986899789A08DF7
:101A0000B18D2DA13EA14FA158A5281739074A072E
:101A10005B0708F470CF81E0AF8DB8A18C93E8CA62
:101A20008B30910521F4E989FA891082E1CAFC0121
:101A3000E456F109EE0FFF1FE20DF31DEB5BFB4FC8
:101A400080819181009709F4D3CADC01ED91FC916A
:101A50000190F081E02DB1016D5E7F4F0995C8CAFC
:101A6000F101EF57FB4F80818823F1F1319680819E
:101A70009181A281B38153014201881A990AAA0A6D
:101A8000BB0A05EC801609E09006A104B10478F1C8
:101A90008BEA91E09A8389831B821C821D821E82BD
:101AA0001F82188619861A86D101ED91FC9101904A
:101AB000F081E02DAE014F5F5F4F6AE070E0C10141
:101AC00009950E948E15F101638374838583968343
:101AD000EE57FB4F408251826282738280E090E039
:101AE00008C08EEF9FEF05C080E090E002C080E06C
:101AF00090E0E2960FB6F894DEBF0FBECDBFDF9147
:101B0000CF911F910F91FF90EF90DF90CF90BF90FA
:101B1000AF909F908F907F906F905F904F903F908D
:101B20002F900895CF93DF93CDB7DEB76E970FB6A2
:101B3000F894DEBF0FBECDBF40E062E083E00E94BC
:101B4000BE154FEF62E083E00E9433164FEF65E071
:101B500083E00E94BE1583E00E949B166CE685E040
:101B60000E9462170FB6F894A89581B5886181BD6F
:101B700011BC0FBE0E9473150E94991578941092A3
:101B8000AA061092A9061092AC061092AB0610920B
:101B9000B0061092AF061092AE061092AD0680917C
:101BA000450690914606892B49F0E7E4F6E081E08E
:101BB00090E021913191232BA9F402C080E090E0C4
:101BC000DC01AA0FBB1FAB5BB94FE4E2F2E0ED937F
:101BD000FC9383589F4F9583848382E392E097839D
:101BE000868304C001968931910519F780917706A3
:101BF00090917806892B49F0E9E7F6E081E090E0E2
:101C000021913191232BB9F402C080E090E0FC01D6
:101C1000EE0FFF1FE958F94FA6E1B2E0B183A083B0
:101C20008C599F4F13969C938E9312971F86188AF8
:101C3000198A1A8A05C001968931910509F7F6CFEC
:101C40000E948E15DC01CB014F84588869887A8800
:101C500084199509A609B70985369105A105B1052D
:101C6000E8F08091E7069091E80690933102809326
:101C70003002E4E2F2E08681978164817581DC01C3
:101C8000ED91FC910190F081E02D4EE252E009953A
:101C90000E948E156F87788B898B9A8B0E948E1588
:101CA0006B017C018091B8069091B906A091BA06AB
:101CB000B091BB0626013701481A590A6A0A7B0A05
:101CC00029EF42162AE252066104710410F01092C4
:101CD000B3068091A9069091AA06892B89F080917C
:101CE000BC069091BD06A091BE06B091BF068C15B2
:101CF0009D05AE05BF0520F41092AA061092A90614
:101D00000F2EFDEC2F2EF6E03F2EF02D4601570151
:101D100034E1830E911CA11CB11C80914102909171
:101D20004202A0914302B0914402892B8A2B8B2B53
:101D3000B1F00E948E15DC01CB018C199D09AE0912
:101D4000BF0900914102109142022091430230915B
:101D50004402081719072A073B0708F471CF0E94AD
:101D6000B61599230CF4B6C4E1EBF6E0208131817D
:101D7000280F391F318320834091A9065091AA066C
:101D800047305105F1F4EFEAF6E020813181A901F5
:101D90004F5F5F4F51834083F901EE5CFD4F838BB2
:101DA000EBEAF6E080819181019791838083892B12
:101DB00009F0B3CF88E090E09093AA068093A9063B
:101DC000ACCF4115510519F58F3F910579F481E0AC
:101DD00090E09093AA068093A9068092BC06909208
:101DE000BD06A092BE06B092BF0697CF0E948E1588
:101DF000DC01CB018C199D09AE09BF0989389341DB
:101E0000A105B10508F489CF1092B30619CF41306E
:101E10005105A9F58E3F910539F482E090E0909349
:101E2000AA068093A90679CF1092AA061092A90655
:101E30008091B306811171CF8BEA91E09A838983F7
:101E40001B821C821D821E821F82188619861A869A
:101E500002E312E0D801ED91FC910190F081E02DB8
:101E6000AE014F5F5F4F6AE070E0C80109950E94C4
:101E70008E15F80163837483858396834ECF423039
:101E8000510599F49093AC068093AB061092B0067E
:101E90001092AF0623E030E03093AA062093A90603
:101EA0009093B2068093B10638CF4330510589F440
:101EB000EBEAF6E0982F882720813181820F931F6B
:101EC0009183808384E090E09093AA068093A90692
:101ED00024CF44305105B9F4307833232CF4215009
:101EE00031093F6F2F5F3F4F2F3F310539F485E0B8
:101EF00090E09093AA068093A9060FCF1092AA06AD
:101F00001092A9060ACF4530510579F49093AE0698
:101F10008093AD0626E030E03093AA062093A90610
:101F20009093B2068093B106F8CE46305105F1F495
:101F3000EDEAF6E0982F882720813181820F931FE8
:101F40009183808387E090E09093AA068093A9060E
:101F50008091AB069091AC06892B09F0DECE88E02B
:101F600090E09093AA068093A906D7CE48305105F9
:101F700009F0D3CE1092AA061092A9063078332326
:101F80002CF4215031093F6F2F5F3F4F2F3F310518
:101F900009F0C3CE8091AD069091AE06009709F08E
:101FA000EEC08BEA91E09A8389831B821C821D829A
:101FB0001E821F82188619861A8602E312E0D80153
:101FC000ED91FC910190F081E02DAE014F5F5F4FEC
:101FD0006AE070E0C80109950E948E15F8016383DC
:101FE00074838583968387EB91E09A8389831C822F
:101FF0001B828DE891E09E838D8398878F839A87DB
:1020000089871B861C861D861E8605E416E00F2E1A
:10201000F7E76F2EF6E07F2EF02D5F01D801ED91EE
:10202000FC913097C9F1848195819C838B83808159
:1020300091819E838D8382819381DC01ED91FC915E
:102040000480F581E02D099598878F83D801ED9163
:10205000FC9182819381DC01ED91FC910680F781F6
:10206000E02D09959A87898720E032E040E050E032
:102070002B873C874D875E87D801ED91FC91608569
:102080007185D501ED91FC910190F081E02DAE01BB
:102090004F5F5F4FC50109950E5F1F4F60167106B8
:1020A00009F0BCCF0F2EF9EA8F2EF6E09F2EF02D0F
:1020B0000F2EF2E3AF2EF2E0BF2EF02DF301A08140
:1020C000B181109709F440C012968D919C9113979D
:1020D0009C838B8314968D919C9115979E838D8301
:1020E000ED91FC9111970480F581E02DCD010995CA
:1020F00098878F83D3018D919C91DC01ED91FC91A8
:102100000680F781E02D09959A87898720E032E0E3
:1021100040E050E02B873C874D875E87D501ED91ED
:10212000FC9100811181F30180819181DC01ED91AD
:10213000FC910280F381E02D0995AE014F5F5F4F66
:10214000BC01C501F8010995F2E06F0E711C68141D
:10215000790409F0B3CF81E08093B306C092B4064E
:10216000D092B506E092B606F092B706C092B806D5
:10217000D092B906E092BA06F092BB0661CD8A30E1
:10218000910509F0BEC00E948E1502E312E0D8014D
:1021900013964D905D906D907C9016979B01AC01CD
:1021A00024193509460957092F8B388F498F5A8FC3
:1021B00054968C91549755962C915597422F50E0F8
:1021C00060E070E0BA0155274427582B53968C9154
:1021D0005397482B56968C912A013B01782AA301EC
:1021E000920121503109410951092B8B3C8B4D8BB8
:1021F0005E8BD80158962C91589759968C9190E007
:10220000A0E0B0E0DC0199278827922BF80127890C
:10221000822B228DB22B2C013D01F6E35F1AF5E6ED
:102220006F0AF4EC7F0A0E948E156B8F7C8F8D8F66
:102230009E8F6F89788D898D9A8D28EE33E040E0EE
:1022400050E00E94CC196F8B788F898F9A8F8B8981
:102250009C89AD89BE89820F931FA41FB51F8B8BEC
:102260009C8BAD8BBE8B6B8D7C8D8D8D9E8D28EE6A
:1022700033E040E050E00E94CC196B8F7C8F8D8F53
:102280009E8F8B899C89AD89BE89821B930BA40B81
:10229000B50BF80187839087A187B2872F89388D86
:1022A000498D5A8D60E472E48FE090E00E94BC1981
:1022B000460E571E681E791E2B8D3C8D4D8D5E8DF2
:1022C00060E472E48FE090E00E94BC19A3019201E7
:1022D000261B370B480B590B2387348745875687B6
:1022E0006DE372E089E392E00E9434170E948E153C
:1022F0006093B8067093B9068093BA069093BB06B4
:102300000CCD8630910509F0CBC1E2E3F2E0838980
:1023100094894588512C612C712C32015524442418
:10232000592A482A8689782A8091C3069091C40642
:10233000A091C506B091C60684159505A605B705FA
:1023400078F40BEC16E0B201660F771F660F771F6B
:10235000D8018D919C910E940E1AF801918380837F
:102360004092C3065092C4066092C5067092C6069B
:1023700045284628472809F447C0E2E3F2E064E034
:1023800070E0412C512C320107EC16E0808D218D3C
:1023900030E040E050E0A90133272227382B87891D
:1023A000282B828D582BC901D8012D933D934D9335
:1023B0005C9313979B01245031096C5F7F4FABEC0A
:1023C000B6E04D915C91240F351FD9018D939C93FC
:1023D000D80112968D919C911397D90113969C93D5
:1023E0008E931297BFEF4B1A5B0A6B0A7B0A3496E7
:1023F000A3ECB6E02D913D914D915C9142165306B0
:102400006406750618F202C064E070E07C8B6B8B8A
:10241000FB01EB5BFD4F8081FB01EA5BFD4F90818F
:10242000FB01E95BFD4F4080512C612C712C320186
:1024300055244424592A482AFB01E85BFD4F80813A
:10244000782A8B010C5F1F4FF10180819181A2815D
:10245000B38184159505A605B70578F4B201660F1A
:10246000771F660F771FA5EDB6E08D919C910E94B6
:102470000E1AE5EDF6E091838083D1014D925D92D5
:102480006D927C92139745284628472809F443C04B
:10249000EB89FC89EE5CFD4F20E030E040E050E04D
:1024A000BA01808D418C512C612C712C3201552444
:1024B0004424582A8789482A828D782AC201A1EDAE
:1024C000B6E04D925D926D927C9213970C5F1F4F18
:1024D000A5EDB6E06D907C90D301A20FB31F1196CD
:1024E0009C938E938091D3069091D40613969C93DF
:1024F0008E9312974F5F5F4F6F4F7F4F2C5F3F4F11
:102500003496D1014D905D906D907C9044155505A9
:102510006605770530F2F801EB5BFD4F8081F8012D
:10252000EA5BFD4F9081F801E95BFD4F4080512C43
:10253000612C712C320155244424592A482AF8016F
:10254000E85BFD4F8081782A0C5F1F4FE7EDF6E0D6
:1025500080819181A281B38184159505A605B70577
:1025600068F4B201660F771FADEDB6E08D919C91D6
:102570000E940E1AEDEDF6E091838083A7EDB6E0A0
:102580004D925D926D927C9213974528462847287C
:1025900009F482C0188E1F8A1B8A1C8A1D8A1E8A13
:1025A0001C8F0B8FF801EB5BFD4F20E030E0412CDE
:1025B000512C3201819190E0022E02C0880F991FA8
:1025C0000A94E2F7092E000CAA0BBB0B482A592AE1
:1025D0006A2A7B2A285F3F4F2032310559F7D801FC
:1025E00014968D010B2E000C220B330B040D151DC0
:1025F000261D371DAD0160E070E0401751076207EE
:10260000730780F4EB8DFC8DE85BFD4FCD014181BC
:1026100041930196AC0160E070E0401751076207FA
:102620007307A8F3CD01840D951DFC01EC5BFD4FF4
:102630001082AC5BBD4FEBEDF6E0B183A0838C0163
:10264000EDEDF6E020813181EF89F88DE20FF31F87
:10265000B183A0832B893C894D895E892F5F3F4FD1
:102660004F4F5F4F2B8B3C8B4D8B5E8B4F89588D23
:102670004E5F5F4F588F4F8BE7EDF6E08081918181
:10268000A281B3814B885C886D887E884816590684
:102690006A067B0608F484CF81E08093C0063DCBB8
:1026A0008B30910519F41092B30637CB880F991F20
:1026B000FC01E155FA4F80819181009709F42DCBFF
:1026C000DC01ED91FC910190F081E02D65E472E078
:1026D000099523CB8091B306882309F4B1CA809170
:1026E000B4069091B506A091B606B091B706260142
:1026F0003701481A590A6A0A7B0A25EC421629E072
:1027000052066104710408F49BCA8BEA91E09A8333
:1027100089831B821C821D821E821F821886198655
:102720001A8602E312E0D801ED91FC910190F0814C
:10273000E02DAE014F5F5F4F6AE070E0C801099580
:102740000E948E15F8016383748385839683C092FB
:10275000B406D092B506E092B606F092B70670CAFB
:102760001F920F920FB60F9211248F939F93809117
:10277000EF069091F00601969093F0068093EF0695
:102780009F918F910F900FBE0F901F901895CF9231
:10279000DF92EF92FF92CF93DF93EC01C61BD70B32
:1027A0006091EB067091EC066C0F7D1F072E000CFC
:1027B000880B990B0E94C31828E539E346EF51E4D2
:1027C0000E944F192DEC3CEC4CE45DE30E944F1944
:1027D0006B017C01BE010D2E000C880B990B0E9431
:1027E000C31823E830EC48E751E40E944F199B01DD
:1027F000AC01C701B6010E94AD1720E030E0A9018D
:102800000E94AD170E948B18C090E106D090E2069E
:10281000E090E306F090E406DC01CB018C0D9D1DF9
:10282000AE1DBF1D8093E1069093E206A093E306E0
:10283000B093E406D093EC06C093EB06803E2EE204
:102840009207A105B1056CF080EE9EE2A0E0B0E039
:102850008093E1069093E206A093E306B093E4062A
:102860000DC0181619061A061B0644F01092E10650
:102870001092E2061092E3061092E4066091E106DF
:102880007091E2068091E3069091E4060E94C318DD
:102890002DE837E94EEA5DE30E944F190E94921835
:1028A000CB01DF91CF91FF90EF90DF90CF90089513
:1028B0001F920F920FB60F9211242F933F934F93B5
:1028C0005F936F937F938F939F93AF93BF93EF9398
:1028D000FF938091ED069091EE0601969093EE069F
:1028E0008093ED068091ED069091EE06059709F034
:1028F00041C06091EF067091F00680E090E00E9488
:10290000C1182DEC3CEC4CEC5DE30E94191820E062
:1029100030E044EB53E40E94191820E030E040E737
:1029200052E40E944F190E9492186093E706709338
:10293000E8068093E9069093EA068CE682BF10923F
:10294000F0061092EF061092EE061092ED066091DE
:10295000E7067091E8068091DF069091E0060E94FC
:10296000C7139093E6068093E50640E0BC0184E03F
:102970000E94C316FF91EF91BF91AF919F918F91EC
:102980007F916F915F914F913F912F910F900FBE6B
:102990000F901F90189587EE91E0909333028093EB
:1029A00032021092B3068FEC91E09093C2068093AE
:1029B000C1061092C3061092C4061092C50610926A
:1029C000C6061092CC061092CB061092CD0610923D
:1029D000CE061092CF061092D0061092D606109214
:1029E000D5061092D7061092D8061092D9061092EA
:1029F000DA061092DE061092DD0685E496E0E7E73F
:102A0000F6E0DC011D921D92EA17FB07D9F729EACF
:102A100036E0119211922E173F07D9F7A5E4B2E0E4
:102A2000E5E4F4E01D92EA17FB07E1F71192E817DD
:102A3000F907E1F71092410210924202109243020C
:102A400010924402AEE2B2E08BED91E011969C93BD
:102A50008E9313961C921E921297E4E2F2E02EE8F7
:102A600031E031832083B383A28311861086E6E1AF
:102A7000F2E021EF31E03183208397838683118652
:102A800010868CE892E09387828781E090E09587BA
:102A900084878AE991E09583848308951F920F9239
:102AA0000FB60F9211248F939F93AF93BF93809192
:102AB000F1069091F206A091F306B091F40601960A
:102AC000A11DB11D8093F1069093F206A093F30629
:102AD000B093F406BF91AF919F918F910F900FBE6D
:102AE0000F901F90189585B58F7B85BD85B5886043
:102AF00085BD8BE083BD85B58F7E85BD85B58F7D1A
:102B000085BD85B5816085BD85B5826085BD85B58E
:102B1000846085BD89B7806889BF0895F894609105
:102B2000F1067091F2068091F3069091F406789484
:102B30000895549A539A529880B58F7B80BD80B582
:102B40008F7E80BD80B58F7D80BD80B5877F80BD45
:102B500080B5826080BD80B5846080BD10BC8CE093
:102B600089B908955D9BFECF8CB908955F9B03C022
:102B70008CB190E008958FEF9FEF0895813011F1AF
:102B800030F08230D1F1833009F452C008954F3FC4
:102B900059F42AB381E090E002C0880F991F6A952A
:102BA000E2F7822B8ABB089541115CC02AB381E011
:102BB00090E002C0880F991F6A95E2F78095822302
:102BC0008ABB08954F3F59F427B381E090E002C0DB
:102BD000880F991F6A95E2F7822B87BB08954111F0
:102BE00041C027B381E090E002C0880F991F6A9529
:102BF000E2F78095822387BB08954F3F59F424B3B1
:102C000081E090E002C0880F991F6A95E2F7822B5D
:102C100084BB0895411126C024B381E090E002C036
:102C2000880F991F6A95E2F78095822384BB0895E7
:102C30004F3F59F421B381E090E002C0880F991F03
:102C40006A95E2F7822B81BB089541110BC021B335
:102C500081E090E002C0880F991F6A95E2F78095A5
:102C6000822381BB0895813011F130F0823069F107
:102C7000833009F445C008954F3F59F42BB381E0E8
:102C800090E002C0880F991F6A95E2F7822B8BBBF8
:102C9000089541114FC02BB381E090E002C0880F2E
:102CA000991F6A95E2F7809582238BBB08954F3F69
:102CB00009F040C028B381E090E002C0880F991F5E
:102CC0006A95E2F7822B88BB08954F3F59F425B3EC
:102CD00081E090E002C0880F991F6A95E2F7822B8D
:102CE00085BB0895411126C025B381E090E002C064
:102CF000880F991F6A95E2F78095822385BB089516
:102D00004F3F59F422B381E090E002C0880F991F31
:102D10006A95E2F7822B82BB089541110BC022B362
:102D200081E090E002C0880F991F6A95E2F78095D4
:102D3000822382BB089578949BB790649BBF8111D6
:102D400007C085B78E7F85BF85B78D7F85BF089506
:102D5000813039F485B7816085BF85B78D7F85BFA8
:102D60000895823039F485B78E7F85BF85B782603C
:102D700085BF0895833031F485B7816085BF85B7FD
:102D8000826085BF0895442319F04130B1F029C015
:102D90009FB59E7F9FBD9FB592609FBD9EB5986079
:102DA0009EBD9EB590619EBD9FB59F7B9FBD9FB50B
:102DB00090689FBD7BBD6ABD14C09FB59E7F9FBDBF
:102DC0009FB592609FBD9EB598609EBD9EB5906177
:102DD0009EBD79BD68BD9FB59F7E9FBD9FB590622A
:102DE0009FBD8330F9F028F4813041F0823081F0CA
:102DF00036C0843009F1853049F131C08EB581602B
:102E00008EBD8EB58D7F8EBD8EB58B7F8EBD27C05E
:102E10008EB58E7F8EBD8EB582608EBD8EB58B7F5A
:102E20008EBD1DC08EB581608EBD8EB582608EBD9B
:102E30008EB58B7F8EBD13C08EB58E7F8EBD8EB549
:102E40008D7F8EBD8EB584608EBD09C08EB58160CC
:102E50008EBD8EB58D7F8EBD8EB584608EBD8FEF9D
:102E600093E097BD86BD0895CF92DF92EF92FF92D7
:102E70000F931F93CF93DF938C01EB0168817981CE
:102E80008A819B8120E03AEC4AE95BE30E94CC19FD
:102E9000F801C080D180E280F380C20ED31EE41E10
:102EA000F51EC082D182E282F382688379838A83AD
:102EB0009B83DF91CF911F910F91FF90EF90DF9057
:102EC000CF90089593B79F7B93BF93B7977F93BF9E
:102ED00062BF8330F9F028F4813041F0823081F014
:102EE00036C0843009F1853049F131C083B7816043
:102EF00083BF83B78D7F83BF83B78B7F83BF27C09B
:102F000083B78E7F83BF83B7826083BF83B78B7F96
:102F100083BF1DC083B7816083BF83B7826083BFD7
:102F200083B78B7F83BF13C083B78E7F83BF83B785
:102F30008D7F83BF83B7846083BF09C083B78160FF
:102F400083BF83B78D7F83BF83B7846083BF89B717
:102F5000816089BF789408955058BB27AA270E94A2
:102F6000C4170C9415190E94071938F00E940E1905
:102F700020F039F49F3F19F426F40C9404190EF450
:102F8000E095E7FB0C94FE18E92F0E94261958F3F0
:102F9000BA17620773078407950720F079F4A6F53E
:102FA0000C9448190EF4E0950B2EBA2FA02D0B01AE
:102FB000B90190010C01CA01A0011124FF27591B7E
:102FC00099F0593F50F4503E68F11A16F040A22F84
:102FD000232F342F4427585FF3CF469537952795F5
:102FE000A795F0405395C9F77EF41F16BA0B620BF4
:102FF000730B840BBAF09150A1F0FF0FBB1F661F3B
:10300000771F881FC2F70EC0BA0F621F731F841F7D
:1030100048F4879577956795B795F7959E3F08F0A3
:10302000B0CF9395880F08F09927EE0F9795879565
:1030300008950E942D180C9415190E940E1958F02D
:103040000E94071940F029F45F3F29F00C94FE1804
:1030500051110C9449190C9404190E94261968F313
:103060009923B1F3552391F3951B550BBB27AA2741
:1030700062177307840738F09F5F5F4F220F331F7B
:10308000441FAA1FA9F335D00E2E3AF0E0E832D043
:1030900091505040E695001CCAF72BD0FE2F29D046
:1030A000660F771F881FBB1F261737074807AB0718
:1030B000B0E809F0BB0B802DBF01FF2793585F4F8D
:1030C0003AF09E3F510578F00C94FE180C94491983
:1030D0005F3FE4F3983ED4F3869577956795B7956F
:1030E000F7959F5FC9F7880F911D9695879597F97A
:1030F0000895E1E0660F771F881FBB1F62177307F3
:103100008407BA0720F0621B730B840BBA0BEE1F07
:1031100088F7E09508950E9492186894B1110C9474
:10312000491908950E942E1988F09F5798F0B92FD9
:103130009927B751B0F0E1F0660F771F881F991FEC
:103140001AF0BA95C9F714C0B13091F00E9448192D
:10315000B1E008950C944819672F782F8827B85F3D
:1031600039F0B93FCCF3869577956795B395D9F744
:103170003EF490958095709561957F4F8F4F9F4F4E
:103180000895E89409C097FB3EF49095809570955A
:1031900061957F4F8F4F9F4F9923A9F0F92F96E9A3
:1031A000BB279395F695879577956795B795F11118
:1031B000F8CFFAF4BB0F11F460FF1BC06F5F7F4FB5
:1031C0008F4F9F4F16C0882311F096E911C07723C7
:1031D00021F09EE8872F762F05C0662371F096E8D0
:1031E000862F70E060E02AF09A95660F771F881F9F
:1031F000DAF7880F9695879597F9089597F99F675D
:1032000080E870E060E008959FEF80EC089500246E
:103210000A941616170618060906089500240A943B
:1032200012161306140605060895092E0394000CC1
:1032300011F4882352F0BB0F40F4BF2B11F460FF50
:1032400004C06F5F7F4F8F4F9F4F089557FD905879
:10325000440F551F59F05F3F71F04795880F97FB5A
:10326000991F61F09F3F79F0879508951216130614
:103270001406551FF2CF4695F1DF08C01616170643
:103280001806991FF1CF8695710561050894089578
:10329000E894BB2766277727CB0197F908950E940A
:1032A00062190C9415190E94071938F00E940E1922
:1032B00020F0952311F00C94FE180C94041911249D
:1032C0000C9449190E94261970F3959FC1F3950F2C
:1032D00050E0551F629FF001729FBB27F00DB11D9A
:1032E000639FAA27F00DB11DAA1F649F6627B00D2A
:1032F000A11D661F829F2227B00DA11D621F739F13
:10330000B00DA11D621F839FA00D611D221F749F20
:103310003327A00D611D231F849F600D211D822F67
:10332000762F6A2F11249F5750409AF0F1F088238E
:103330004AF0EE0FFF1FBB1F661F771F881F9150BB
:103340005040A9F79E3F510580F00C94FE180C9454
:1033500049195F3FE4F3983ED4F3869577956795D6
:10336000B795F795E7959F5FC1F7FE2B880F911DE5
:103370009695879597F90895DB018F939F930E9407
:10338000EE19BF91AF91A29F800D911DA39F900D4B
:10339000B29F900D11240895A1E21A2EAA1BBB1B07
:1033A000FD010DC0AA1FBB1FEE1FFF1FA217B30711
:1033B000E407F50720F0A21BB30BE40BF50B661F27
:1033C000771F881F991F1A9469F7609570958095EB
:1033D00090959B01AC01BD01CF0108950E94FF199A
:1033E000A59F900DB49F900DA49F800D911D112459
:1033F0000895EE0FFF1F0590F491E02D0994A29F10
:10340000B001B39FC001A39F700D811D1124911DB8
:10341000B29F700D811D1124911D0895A0E0B0E0B0
:10342000E4E1FAE10C94021CEC01009721F4CB01D9
:103430000E94DD1AB4C0FC01E60FF71F9C01225068
:103440003109E217F30708F4A8C0D9010D911C91C6
:10345000119706171707B0F00530110508F49BC047
:10346000C80104978617970708F495C00250110900
:10347000061B170B019311936D937C93CF010E9450
:10348000751B89C05B01A01AB10A4C01800E911E08
:10349000A091F706B091F806612C712CE12CF12C6B
:1034A000109709F446C08D919C911197A815B90504
:1034B000B1F56C0142E0C40ED11CCA14DB0478F1F2
:1034C0004C018A189B08640142E0C40ED11C12967C
:1034D000BC9012971396AC91B5E0CB16D10440F096
:1034E000B282A38391828082D9016D937C9309C0BB
:1034F0000E5F1F4F800F911FF90191838083EB2D89
:10350000FA2FE114F10431F0D7011396FC93EE93F6
:10351000129741C0F093F806E093F7063CC0681696
:10352000790608F43C017D0112960D90BC91A02D06
:10353000B7CF8091F5069091F60688169906E1F4CA
:1035400066167706C8F4809160009091610000973C
:1035500041F48DB79EB74091640050916500841B83
:10356000950BE817F907C8F4F093F606E093F50613
:10357000F901718360830FC0CB010E94DD1A7C01C9
:10358000009759F0A801BE010E94D41ACE010E94F2
:10359000751BC70104C0CE0102C080E090E0CDB72A
:1035A000DEB7EEE00C941E1CFB01DC0102C00190B2
:1035B0000D9241505040D8F708950F931F93CF9329
:1035C000DF938230910510F482E090E0E091F706FD
:1035D000F091F80620E030E0A0E0B0E0309719F17B
:1035E000408151810281138148175907C8F084171F
:1035F000950769F4109731F012960C931297139671
:103600001C9327C00093F7061093F80622C02115DB
:10361000310519F04217530718F49A01BD01EF0163
:10362000DF01F801DBCF21153105F9F0281B390B3B
:103630002430310580F48A819B816115710521F068
:10364000FB019383828304C09093F8068093F7066E
:10365000FE01329644C0FE01E20FF31F8193919365
:1036600022503109398328833AC02091F5063091E0
:10367000F606232B41F420916200309163003093D1
:10368000F6062093F5062091600030916100211527
:10369000310541F42DB73EB740916400509165006B
:1036A000241B350BE091F506F091F606E217F307BF
:1036B000A0F42E1B3F0B2817390778F0AC014E5FA2
:1036C0005F4F2417350748F04E0F5F1F5093F606E3
:1036D0004093F5068193919302C0E0E0F0E0CF01C2
:1036E000DF91CF911F910F910895CF93DF930097B2
:1036F00009F481C0FC01329713821282A091F7066F
:10370000B091F806109781F420813181820F931FC8
:103710002091F5063091F6062817390751F5F093F8
:10372000F606E093F50667C0ED0120E030E0CE1725
:10373000DF0740F44A815B819E0141155105F1F09C
:10374000EA01F5CFD383C28340815181840F951F55
:10375000C817D90759F488819981840F951F02965B
:10376000918380838A819B81938382832115310594
:1037700029F4F093F806E093F7063DC0E901FB83D6
:10378000EA8349915991C40FD51FEC17FD0761F4E5
:1037900080819181840F951F0296E9019983888326
:1037A000828193819B838A83E0E0F0E012968D9181
:1037B0009C911397009719F0FD01DC01F7CF8D91D3
:1037C0009C9111979D012E5F3F4F820F931F209177
:1037D000F5063091F6062817390769F4309729F471
:1037E0001092F8061092F70602C013821282B0936C
:1037F000F606A093F506DF91CF9108952F923F92A0
:103800004F925F926F927F928F929F92AF92BF92F0
:10381000CF92DF92EF92FF920F931F93CF93DF939C
:10382000CDB7DEB7CA1BDB0B0FB6F894DEBF0FBEF9
:10383000CDBF09942A88398848885F846E847D8446
:103840008C849B84AA84B984C884DF80EE80FD8048
:103850000C811B81AA81B981CE0FD11D0FB6F894BE
:0E386000DEBF0FBECDBFED010895F894FFCF7F
:10386E000000F90620007374645F6D7367732F5444
:10387E00696D6500636437313636633734633535C9
:10388E003263333131666263633266653561376246
:10389E006332383900726F7373657269616C5F6D74
:1038AE007367732F546F706963496E666F00306172
:1038BE006435316638386663343438393266386385
:1038CE0031303638343037373634363030350072A2
:1038DE006F7373657269616C5F6D7367732F4C6F75
:1038EE0067003131616264373331633235393333D6
:1038FE003236316364363138336264313264363293
:10390E003935003966306539386264613635393893
:10391E003139383664646635336166613761343007
:10392E00653439007374645F6D7367732F55496E18
:10393E007431360031646637396564663230386208
:10394E003632396665366238313932336135343460
:10395E0035353264004D6573736167652066726F2D
:10396E006D206465766963652064726F707065643E
:10397E003A206D657373616765206C61726765725D
:10398E00207468616E206275666665722E006D6FBA
:10399E00746F725F7370656564004D50435F76653A
:1039AE006C6F63697479000000000055007900BFE8
:1039BE0000C20000000000B402C500F901FC0100C5
:1039CE000000006D03FF016002630200000000AB07
:1039DE0003D20466026902000000006C02770286C0
:1039EE0002890200000000D0067B07AF0200000033
:1039FE00009402A502A902AC02726F73736572691C
:103A0E00616C5F6D7367732F52657175657374505A
:063A1E006172616D000001
:00000001FF
